S01400006430303033655F6C616262352E737265635F
S11300000C9438000C9435040C94A1040C940D0544
S11300100C9479050C94E5050C9455000C94BC0CD7
S11300200C9455000C946A0C0C9451060C94BD0667
S11300300C9429070C9495070C9401080C946D08F2
S11300400C94D9080C9445090C94B1090C941D0A1C
S11300500C94890A0C94F50A0C94610B8F007100BE
S1130060740077007A007D00800083008600890098
S113007011241FBECFEFD4E0DEBFCDBF11E0A0E05E
S1130080B1E0E4EAF0E202C005900D92A232B107B9
S1130090D9F724E0A2E2B1E001C01D92AD37B20766
S11300A0E1F70E94F3020C9450100C940000E1E676
S11300B0F0E080E88083108287EB8093E50087E09E
S11300C08093E6008FE08093E70080EC8093E40067
S11300D008958A30910500F5FC01E25DFF4F0C9410
S11300E0E70F80E890E2089581E19EE1089581E1BF
S11300F09BE1089580E59BE0089581E49BE10895E8
S113010081E49FE1089581E191E0089581E59FE113
S1130110089581E59BE0089580E090E0089581E5ED
S113012095E10895EF92FF921F93CF93DF9300D050
S1130130CDB7DEB71A8219826630710508F0FEC1A8
S113014090ED980F9A3028F08AE090E09A838983A2
S113015004C090E0C0979A8389836115710509F002
S11301604EC00F2EFCEEEF2EF12CF02DF701108176
S113017089819A810E946900107F8F70812BF70119
S113018080830F2EF1EFEF2EF12CF02DF70110816B
S113019089819A810E946900807F99279595879526
S11301A0959587959595879595958795107F812B3E
S11301B0F70180830F2EF6EFEF2EF12CF02DF701CF
S11301C0108189819A810E94690088279F70107F1D
S11301D0192BF70110830F2EFBEFEF2EF12CF02DCE
S11301E0F701108189819A810E946900107F959599
S11301F0959595959595912BF70190839FC16130C5
S1130200710509F050C00F2EFCEEEF2EF12CF02DED
S1130210F701108189819A810E9469001F7082957B
S11302209295907F9827807F9827812BF701808370
S11302300F2EF1EFEF2EF12CF02DF70110818981B3
S11302409A810E9469001F70807F812BF70180834F
S11302500F2EF6EFEF2EF12CF02DF701108189818E
S11302609A810E94690088279F7095958795959536
S1130270879595958795959587951F70812BF7019F
S113028080830F2EFBEFEF2EF12CF02DF701108160
S113029089819A810E9469008827907F1F70192B99
S11302A0F70110834BC16230710509F04EC00F2E67
S11302B0FDEEEF2EF12CF02DF701108189819A814A
S11302C00E946900107F8F70812BF70180830F2EAD
S11302D0F2EFEF2EF12CF02DF701108189819A8134
S11302E00E946900807F99279595879595958795B4
S11302F09595879595958795107F812BF701808338
S11303000F2EF7EFEF2EF12CF02DF70110818981DC
S11303109A810E94690088279F70107F192BF7012A
S113032010830F2EFCEFEF2EF12CF02DF70110812E
S113033089819A810E946900107F9595959595957C
S11303409595912BF7019083F9C06330710509F0FD
S113035050C00F2EFDEEEF2EF12CF02DF701108181
S113036089819A810E9469001F7082959295907F7D
S11303709827807F9827812BF70180830F2EF2EF37
S1130380EF2EF12CF02DF701108189819A810E94C2
S113039069001F70807F812BF70180830F2EF7EF98
S11303A0EF2EF12CF02DF701108189819A810E94A2
S11303B0690088279F70959587959595879595955C
S11303C08795959587951F70812BF70180830F2E54
S11303D0FCEFEF2EF12CF02DF701108189819A8129
S11303E00E9469008827907F1F70192BF7011083E2
S11303F0A5C06430710509F04EC00F2EFEEEEF2E3D
S1130400F12CF02DF701108189819A810E946900F5
S1130410107F8F70812BF70180830F2EF3EFEF2E67
S1130420F12CF02DF701108189819A810E946900D5
S1130430807F992795958795959587959595879527
S113044095958795107F812BF70180830F2EF8EF08
S1130450EF2EF12CF02DF701108189819A810E94F1
S1130460690088279F70107F192BF70110830F2EC6
S1130470FDEFEF2EF12CF02DF701108189819A8187
S11304800E946900107F9595959595959595912B6A
S1130490F701908353C06530710509F04FC00F2EEA
S11304A0FEEEEF2EF12CF02DF701108189819A8157
S11304B00E9469001F7082959295907F9827807F93
S11304C09827812BF70180830F2EF3EFEF2EF12C69
S11304D0F02DF701108189819A810E9469001F70B3
S11304E0807F812BF70180830F2EF8EFEF2EF12C04
S11304F0F02DF701108189819A810E946900882773
S11305009F709595879595958795959587959595DC
S113051087951F70812BF70180830F2EFDEFEF2E3F
S1130520F12CF02DF701108189819A810E946900D4
S11305308827907F1F70192BF70110830F900F905D
S1130540DF91CF911F91FF90EF9008958F929F922A
S1130550AF92BF92CF92DF92EF92FF92CF93DF934D
S11305604B015C01EA0124E630E040E050E00E94E7
S1130570C80F0F2EFAE0CF2ED12CE12CF12CF02D48
S1130580A70196010E94C80FBE0180E3820F0E945A
S113059092002196C501B401A70196010E94C80FDB
S11305A0862FBE01805D0E949200DF91CF91FF9063
S11305B0EF90DF90CF90BF90AF909F908F90089571
S11305C0FC01208931892130310529F421E030E012
S11305D0358724870895232B29F421E030E0FC019A
S11305E037872687089540E050E068E473E080E0B0
S11305F091E00E94970FFFCFCF93DF93EC0140E08F
S113060050E06FEB7FE08C819D810E94820EEC8133
S1130610FD81848180FF07C0EE81FF818085918503
S1130620019691878087EC81FD81848181FF0EC0D2
S1130630EE81FF8180859185019791878087EE8186
S1130640FF8186819781019697838683EC81FD8162
S1130650848182FF07C0EE81FF81828593850196A4
S113066093878287EC81FD81848183FF0EC0EE81B4
S1130670FF8182859385019793878287EE81FF812D
S113068086819781019697838683DF91CF91089520
S1130690EC010E9457008C819D810E94B30F48E0B9
S11306A06CEF72E0CE010E947D0F0E811F81C12C80
S11306B0D12C0F2EF0EEEF2EF2E0FF2EF02D20E0E5
S11306C030E0A90160E070E0CB010E94710D44E0CC
S11306D050E060E070E0CB010E94A602FFCFCF9310
S11306E0DF9300D000D0CDB7DEB78DE192E02DEFDF
S11306F032E0FC01709791838083409682179307C0
S1130700C1F71092EE021092ED02E8E5F1E085E700
S113071091E09183808382E991E0968F858FAFEA9F
S1130720B1E0B3AFA2AF1D921C92FA83E983E9E56D
S1130730F3E0FC83EB8389819A8106960E940F1073
S11307408B819C81E981FA81978B868B918F808F35
S11307508FE09FE0948F838F158214827D96FA83B5
S1130760E983EB81FC81E05AFF4FFC83EB838981B1
S11307709A818C5C9140F9F6E0EFF1E011821082ED
S11307801582148213821282E1E6F0E080E880830D
S11307901082109285001092840084E0809381007E
S11307A081E080936F000F900F900F900F90DF9176
S11307B0CF910895CF93DF9300D0CDB7DEB79A835E
S11307C0898380911A0190911B0106960E940F1053
S11307D0892B59F489819A8190931B0180931A0182
S11307E061E070E006960E942F100F900F90DF9149
S11307F0CF9108950F931F93CF93DF93E09132012C
S1130800F0913301309761F180911E0190911F01A5
S1130810009731F1C0911C01D0911D01AA81BB81C7
S1130820109779F0468157816085718516960D91F0
S11308301D912D913C911997401B510B620B730B29
S11308407AF4FC012081318130931F0120931E0131
S1130850D183C08390931D0180931C010E94DA030D
S1130860DF91CF911F910F9108951F920F920FB6B0
S11308700F9211242F933F934F935F936F937F9322
S11308808F939F93AF93BF93EF93FF9320912A018C
S113089030912B014091840050918500C901032EB1
S11308A0000CAA0BBB0BDC019927882760E070E0E1
S11308B0842B952BA62BB72B80932C0190932D0181
S11308C0A0932E01B0932F01B09B1BC040918400D4
S11308D050918500C9010196092E000CAA0BBB0B8F
S11308E0DC019927882760E070E0842B952BA62BE8
S11308F0B72B80932C0190932D01A0932E01B093DC
S11309002F01E091CC01F091CD01309739F060E0F6
S113091070E0809134019091350109950E94FA03A9
S1130920FF91EF91BF91AF919F918F917F916F91C3
S11309305F914F913F912F910F900FBE0F901F9099
S113094018951F920F920FB60F9211242F933F9375
S11309504F935F936F937F938F939F93AF93BF93C3
S1130960EF93FF9320912A0130912B014091840051
S113097050918500C901032E000CAA0BBB0BDC01AE
S11309809927882760E070E0842B952BA62BB72B42
S113099080932C0190932D01A0932E01B0932F01ED
S11309A0B09B1BC04091840050918500C901019601
S11309B0092E000CAA0BBB0BDC019927882760E0E9
S11309C070E0842B952BA62BB72B80932C0190934E
S11309D02D01A0932E01B0932F01E091CE01F0914F
S11309E0CF01309739F061E070E080913601909149
S11309F0370109950E94FA03FF91EF91BF91AF91DE
S1130A009F918F917F916F915F914F913F912F9122
S1130A100F900FBE0F901F9018951F920F920FB654
S1130A200F9211242F933F934F935F936F937F9370
S1130A308F939F93AF93BF93EF93FF9320912A01DA
S1130A4030912B014091840050918500C901032EFF
S1130A50000CAA0BBB0BDC019927882760E070E02F
S1130A60842B952BA62BB72B80932C0190932D01CF
S1130A70A0932E01B0932F01B09B1BC04091840022
S1130A8050918500C9010196092E000CAA0BBB0BDD
S1130A90DC019927882760E070E0842B952BA62B36
S1130AA0B72B80932C0190932D01A0932E01B0932A
S1130AB02F01E091D001F091D101309739F062E03B
S1130AC070E0809138019091390109950E94FA03F0
S1130AD0FF91EF91BF91AF919F918F917F916F9112
S1130AE05F914F913F912F910F900FBE0F901F90E8
S1130AF018951F920F920FB60F9211242F933F93C4
S1130B004F935F936F937F938F939F93AF93BF9311
S1130B10EF93FF9320912A0130912B01409184009F
S1130B2050918500C901032E000CAA0BBB0BDC01FC
S1130B309927882760E070E0842B952BA62BB72B90
S1130B4080932C0190932D01A0932E01B0932F013B
S1130B50B09B1BC04091840050918500C90101964F
S1130B60092E000CAA0BBB0BDC019927882760E037
S1130B7070E0842B952BA62BB72B80932C0190939C
S1130B802D01A0932E01B0932F01E091D201F09199
S1130B90D301309739F063E070E080913A0190918D
S1130BA03B0109950E94FA03FF91EF91BF91AF9128
S1130BB09F918F917F916F915F914F913F912F9171
S1130BC00F900FBE0F901F9018951F920F920FB6A3
S1130BD00F9211242F933F934F935F936F937F93BF
S1130BE08F939F93AF93BF93EF93FF9320912A0129
S1130BF030912B014091840050918500C901032E4E
S1130C00000CAA0BBB0BDC019927882760E070E07D
S1130C10842B952BA62BB72B80932C0190932D011D
S1130C20A0932E01B0932F01B09B1BC04091840070
S1130C3050918500C9010196092E000CAA0BBB0B2B
S1130C40DC019927882760E070E0842B952BA62B84
S1130C50B72B80932C0190932D01A0932E01B09378
S1130C602F01E091D401F091D501309739F064E07F
S1130C7070E080913C0190913D0109950E94FA0336
S1130C80FF91EF91BF91AF919F918F917F916F9160
S1130C905F914F913F912F910F900FBE0F901F9036
S1130CA018951F920F920FB60F9211242F933F9312
S1130CB04F935F936F937F938F939F93AF93BF9360
S1130CC0EF93FF9320912A0130912B0140918400EE
S1130CD050918500C901032E000CAA0BBB0BDC014B
S1130CE09927882760E070E0842B952BA62BB72BDF
S1130CF080932C0190932D01A0932E01B0932F018A
S1130D00B09B1BC04091840050918500C90101969D
S1130D10092E000CAA0BBB0BDC019927882760E085
S1130D2070E0842B952BA62BB72B80932C019093EA
S1130D302D01A0932E01B0932F01E091D601F091E3
S1130D40D701309739F065E070E080913E019091D1
S1130D503F0109950E94FA03FF91EF91BF91AF9172
S1130D609F918F917F916F915F914F913F912F91BF
S1130D700F900FBE0F901F9018951F920F920FB6F1
S1130D800F9211242F933F934F935F936F937F930D
S1130D908F939F93AF93BF93EF93FF9320912A0177
S1130DA030912B014091840050918500C901032E9C
S1130DB0000CAA0BBB0BDC019927882760E070E0CC
S1130DC0842B952BA62BB72B80932C0190932D016C
S1130DD0A0932E01B0932F01B09B1BC040918400BF
S1130DE050918500C9010196092E000CAA0BBB0B7A
S1130DF0DC019927882760E070E0842B952BA62BD3
S1130E00B72B80932C0190932D01A0932E01B093C6
S1130E102F01E091D801F091D901309739F066E0C3
S1130E2070E0809140019091410109950E94FA037C
S1130E30FF91EF91BF91AF919F918F917F916F91AE
S1130E405F914F913F912F910F900FBE0F901F9084
S1130E5018951F920F920FB60F9211242F933F9360
S1130E604F935F936F937F938F939F93AF93BF93AE
S1130E70EF93FF9320912A0130912B01409184003C
S1130E8050918500C901032E000CAA0BBB0BDC0199
S1130E909927882760E070E0842B952BA62BB72B2D
S1130EA080932C0190932D01A0932E01B0932F01D8
S1130EB0B09B1BC04091840050918500C9010196EC
S1130EC0092E000CAA0BBB0BDC019927882760E0D4
S1130ED070E0842B952BA62BB72B80932C01909339
S1130EE02D01A0932E01B0932F01E091DA01F0912E
S1130EF0DB01309739F067E070E080914201909116
S1130F00430109950E94FA03FF91EF91BF91AF91BC
S1130F109F918F917F916F915F914F913F912F910D
S1130F200F900FBE0F901F9018951F920F920FB63F
S1130F300F9211242F933F934F935F936F937F935B
S1130F408F939F93AF93BF93EF93FF9320912A01C5
S1130F5030912B014091840050918500C901032EEA
S1130F60000CAA0BBB0BDC019927882760E070E01A
S1130F70842B952BA62BB72B80932C0190932D01BA
S1130F80A0932E01B0932F01B09B1BC0409184000D
S1130F9050918500C9010196092E000CAA0BBB0BC8
S1130FA0DC019927882760E070E0842B952BA62B21
S1130FB0B72B80932C0190932D01A0932E01B09315
S1130FC02F01E091DC01F091DD01309739F068E008
S1130FD070E0809144019091450109950E94FA03C3
S1130FE0FF91EF91BF91AF919F918F917F916F91FD
S1130FF05F914F913F912F910F900FBE0F901F90D3
S113100018951F920F920FB60F9211242F933F93AE
S11310104F935F936F937F938F939F93AF93BF93FC
S1131020EF93FF9320912A0130912B01409184008A
S113103050918500C901032E000CAA0BBB0BDC01E7
S11310409927882760E070E0842B952BA62BB72B7B
S113105080932C0190932D01A0932E01B0932F0126
S1131060B09B1BC04091840050918500C90101963A
S1131070092E000CAA0BBB0BDC019927882760E022
S113108070E0842B952BA62BB72B80932C01909387
S11310902D01A0932E01B0932F01E091DE01F09178
S11310A0DF01309739F069E070E08091460190915A
S11310B0470109950E94FA03FF91EF91BF91AF9107
S11310C09F918F917F916F915F914F913F912F915C
S11310D00F900FBE0F901F9018951F920F920FB68E
S11310E00F9211242F933F934F935F936F937F93AA
S11310F08F939F93AF93BF93EF93FF9320912A0114
S113110030912B014091840050918500C901032E38
S1131110000CAA0BBB0BDC019927882760E070E068
S1131120842B952BA62BB72B80932C0190932D0108
S1131130A0932E01B0932F01B09B1BC0409184005B
S113114050918500C9010196092E000CAA0BBB0B16
S1131150DC019927882760E070E0842B952BA62B6F
S1131160B72B80932C0190932D01A0932E01B09363
S11311702F01E091E001F091E101309739F06AE04C
S113118070E0809148019091490109950E94FA0309
S1131190FF91EF91BF91AF919F918F917F916F914B
S11311A05F914F913F912F910F900FBE0F901F9021
S11311B018951F920F920FB60F9211242F933F93FD
S11311C04F935F936F937F938F939F93AF93BF934B
S11311D0EF93FF9320912A0130912B0140918400D9
S11311E050918500C901032E000CAA0BBB0BDC0136
S11311F09927882760E070E0842B952BA62BB72BCA
S113120080932C0190932D01A0932E01B0932F0174
S1131210B09B1BC04091840050918500C901019688
S1131220092E000CAA0BBB0BDC019927882760E070
S113123070E0842B952BA62BB72B80932C019093D5
S11312402D01A0932E01B0932F01E091E201F091C2
S1131250E301309739F06BE070E080914A0190919E
S11312604B0109950E94FA03FF91EF91BF91AF9151
S11312709F918F917F916F915F914F913F912F91AA
S11312800F900FBE0F901F9018951F920F920FB6DC
S11312900F9211242F933F934F935F936F937F93F8
S11312A08F939F93AF93BF93EF93FF9320912A0162
S11312B030912B014091840050918500C901032E87
S11312C0000CAA0BBB0BDC019927882760E070E0B7
S11312D0842B952BA62BB72B80932C0190932D0157
S11312E0A0932E01B0932F01B09B1BC040918400AA
S11312F050918500C9010196092E000CAA0BBB0B65
S1131300DC019927882760E070E0842B952BA62BBD
S1131310B72B80932C0190932D01A0932E01B093B1
S11313202F01E091E401F091E501309739F06CE090
S113133070E080914C0190914D0109950E94FA034F
S1131340FF91EF91BF91AF919F918F917F916F9199
S11313505F914F913F912F910F900FBE0F901F906F
S113136018951F920F920FB60F9211242F933F934B
S11313704F935F936F937F938F939F93AF93BF9399
S1131380EF93FF9320912A0130912B014091840027
S113139050918500C901032E000CAA0BBB0BDC0184
S11313A09927882760E070E0842B952BA62BB72B18
S11313B080932C0190932D01A0932E01B0932F01C3
S11313C0B09B1BC04091840050918500C9010196D7
S11313D0092E000CAA0BBB0BDC019927882760E0BF
S11313E070E0842B952BA62BB72B80932C01909324
S11313F02D01A0932E01B0932F01E091E601F0910D
S1131400E701309739F06DE070E080914E019091E2
S11314104F0109950E94FA03FF91EF91BF91AF919B
S11314209F918F917F916F915F914F913F912F91F8
S11314300F900FBE0F901F9018951F920F920FB62A
S11314400F9211242F933F934F935F936F937F9346
S11314508F939F93AF93BF93EF93FF9320912A01B0
S113146030912B014091840050918500C901032ED5
S1131470000CAA0BBB0BDC019927882760E070E005
S1131480842B952BA62BB72B80932C0190932D01A5
S1131490A0932E01B0932F01B09B1BC040918400F8
S11314A050918500C9010196092E000CAA0BBB0BB3
S11314B0DC019927882760E070E0842B952BA62B0C
S11314C0B72B80932C0190932D01A0932E01B09300
S11314D02F01E091E801F091E901309739F06EE0D5
S11314E070E0809150019091510109950E94FA0396
S11314F0FF91EF91BF91AF919F918F917F916F91E8
S11315005F914F913F912F910F900FBE0F901F90BD
S113151018951F920F920FB60F9211242F933F9399
S11315204F935F936F937F938F939F93AF93BF93E7
S1131530EF93FF9320912A0130912B014091840075
S113154050918500C901032E000CAA0BBB0BDC01D2
S11315509927882760E070E0842B952BA62BB72B66
S113156080932C0190932D01A0932E01B0932F0111
S1131570B09B1BC04091840050918500C901019625
S1131580092E000CAA0BBB0BDC019927882760E00D
S113159070E0842B952BA62BB72B80932C01909372
S11315A02D01A0932E01B0932F01E091EA01F09157
S11315B0EB01309739F06FE070E080915201909127
S11315C0530109950E94FA03FF91EF91BF91AF91E6
S11315D09F918F917F916F915F914F913F912F9147
S11315E00F900FBE0F901F9018951F920F920FB679
S11315F00F9211242F933F934F935F936F937F9395
S11316008F939F93AF93BF93EF93FF9320912A01FE
S113161030912B014091840050918500C901032E23
S1131620000CAA0BBB0BDC019927882760E070E053
S1131630842B952BA62BB72B80932C0190932D01F3
S1131640A0932E01B0932F01B09B1BC04091840046
S113165050918500C9010196092E000CAA0BBB0B01
S1131660DC019927882760E070E0842B952BA62B5A
S1131670B72B80932C0190932D01A0932E01B0934E
S11316802F01E091EC01F091ED01309739F060E128
S113169070E0809154019091550109950E94FA03DC
S11316A0FF91EF91BF91AF919F918F917F916F9136
S11316B05F914F913F912F910F900FBE0F901F900C
S11316C018951F920F920FB60F9211242F933F93E8
S11316D04F935F936F937F938F939F93AF93BF9336
S11316E0EF93FF9320912A0130912B0140918400C4
S11316F050918500C901032E000CAA0BBB0BDC0121
S11317009927882760E070E0842B952BA62BB72BB4
S113171080932C0190932D01A0932E01B0932F015F
S1131720B09B1BC04091840050918500C901019673
S1131730092E000CAA0BBB0BDC019927882760E05B
S113174070E0842B952BA62BB72B80932C019093C0
S11317502D01A0932E01B0932F01E091EE01F091A1
S1131760EF01309739F061E170E08091560190917A
S1131770570109950E94FA03FF91EF91BF91AF9130
S11317809F918F917F916F915F914F913F912F9195
S11317900F900FBE0F901F901895EF92FF920F932A
S11317A01F93CF93DF937B01EB01A881B98110973D
S11317B061F1FC01068117812085318516964D91D2
S11317C05D916D917C9119970417150726073707CA
S11317D014F41BC0DF01ED91FC911197309749F08F
S11317E046815781608571850417150726073707D9
S11317F08CF7EC01F983E883109721F4F7019183C6
S1131800808307C08D939C9304C0EC01B983A883A3
S1131810F5CFDF91CF911F910F91FF90EF90089535
S1131820EF92FF920F931F93CF93DF937B01EB0112
S1131830A881B981109761F1FC010281138124818F
S1131840358112964D915D916D917C911597041798
S113185015072607370714F41BC0DF01ED91FC912F
S11318601197309749F0428153816481758104173F
S11318701507260737078CF7EC01F983E8831097DF
S113188021F4F7019183808307C08D939C9304C056
S1131890EC01B983A883F5CFDF91CF911F910F910C
S11318A0FF90EF900895DC01ED91FC911197309732
S11318B059F48FEF8093EC008093ED008093EE0059
S11318C081E083BF8895FDCF208131812D933C93A6
S11318D0CF0108951F920F920FB60F9211242F93E8
S11318E03F934F935F936F937F938F939F93EF9364
S11318F0FF9380912A0190912B01019690932B01E3
S113190080932A01E0913001F0913101309701F187
S1131910428153816481758186179707C9F4CA018E
S11319202091840030918500421B530B41305105B6
S113193029F4809184009091850001969093890008
S113194080938800EFE6F0E080818260808305C0A8
S1131950EFE6F0E080818D7F8083FF91EF919F918E
S11319608F917F916F915F914F913F912F910F9044
S11319700FBE0F901F9018951F920F920FB60F92E3
S11319801124CF92DF92EF92FF922F933F934F93C4
S11319905F936F937F938F939F93AF93BF93EF93D3
S11319A0FF93C0902A01D0902B01209184003091A4
S11319B08500B0990FC00D2C000CEE08FF08D6016D
S11319C0992788276901E12CF12CC82AD92AEA2A07
S11319D0FB2A15C020918400309185008FEFC81A2E
S11319E0D80A0D2C000CEE08FF08D6019927882789
S11319F06901E12CF12CC82AD92AEA2AFB2AE091B0
S1131A003001F0913101309709F442C08281938111
S1131A10A481B5818C199D09AE09BF091816190650
S1131A201A061B06ECF180E391E00E94530C62E37A
S1131A3071E00E94CD0BE0913001F09131013097BB
S1131A4039F182819381A481B5818C199D09AE09F4
S1131A50BF09181619061A061B062CF721C09C018B
S1131A604091840050918500841B950B019731F4BB
S1131A7020918400309185002F5F3F4F309389007F
S1131A8020938800EFE6F0E080818260808305C0C7
S1131A90EFE6F0E080818D7F80830E94FA030CC022
S1131AA082819381A481B58120912A0130912B01F7
S1131AB02A173B0769F7D3CFFF91EF91BF91AF91FD
S1131AC09F918F917F916F915F914F913F912F9152
S1131AD0FF90EF90DF90CF900F900FBE0F901F906C
S1131AE018953F924F925F926F927F928F929F923E
S1131AF0AF92BF92CF92DF92EF92FF920F931F9318
S1131B00CF93DF932B013C0149015A018FB78078B1
S1131B10382EF89480E291E00E94530CEC011B876C
S1131B200A87FD86EC86DF86CE86332061F0E0915D
S1131B301A01F0911B010280F381E02D82819381CF
S1131B40A481B58108C080912C0190912D01A091B0
S1131B502E01B0912F01480E591E6A1E7B1E4A8227
S1131B605B826C827D82181419041A041B0444F0ED
S1131B700F2E88248A94982CA82CFFE7BF2EF02DD2
S1131B80840C951CA61CB71C8E829F82A886B986DD
S1131B9080912A0190912B014091840050918500FD
S1131BA0B0990EC0092E000CAA0BBB0BDC019927BF
S1131BB0882760E070E0842B952BA62BB72B13C0ED
S1131BC020918400309185000196092E000CAA0B07
S1131BD0BB0BDC0199278827A90160E070E0842B06
S1131BE0952BA62BB72B481A590A6A0A7B0A141498
S1131BF0150416041704ACF560E371E0CE010E94ED
S1131C00100CE0913001F0913101309721F1828183
S1131C109381A481B58120912A0130912B012A1747
S1131C203B07C9F49C014091840050918500841BBA
S1131C30950B019731F420918400309185002F5F3A
S1131C403F4F3093890020938800EFE6F0E08081D5
S1131C508260808341C0EFE6F0E080818D7F8083E5
S1131C603BC062E371E0CE010E94CD0B3320B9F199
S1131C7080911E0190911F01009781F1E0911C0158
S1131C80F0911D01209132013091330102811381C1
S1131C90D90116964D915D916D917C911997D8015A
S1131CA016960D911D912D913C911997401B510B46
S1131CB0620B730B9AF4DC012D913C9111973093D4
S1131CC01F0120931E01ED93FC9390931D018093BB
S1131CD01C010E94DA0302C0332009F07894CE017B
S1131CE0DF91CF911F910F91FF90EF90DF90CF90F4
S1131CF0BF90AF909F908F907F906F905F904F9028
S1131D003F900895CF92DF92EF92FF920F931F932B
S1131D10CF93DF93EC017B016A011FB71078F8942D
S1131D20A881B981109761F11496ED91FC911597F2
S1131D30309741F0A081B1811496ED91FC911597F3
S1131D403097C1F720911A0130911B012A173B07E4
S1131D5021F0112309F43DC007C0112309F43CC04C
S1131D6078948FEF9FEF52C08A819B810097D1F1C5
S1131D70FC011582148236C0789480E090E046C05D
S1131D8080911A0190911B0199838883112329F072
S1131D908A819B81019709F07894B601CE01F701FD
S1131DA00995F82E092F8FB7F894198218828A8121
S1131DB09B818230910538F01B821A82FC011582C6
S1131DC014820E94DA03112351F078948F2D902FFE
S1131DD01DC08FEF9FEF1AC08FEF9FEF17C08F2D9D
S1131DE0902F14C03B832A83F901D583C483CD018A
S1131DF00E94DA03E0911A01F0911B018281938120
S1131E00892B09F4B9CFF983E883C2CFDF91CF914D
S1131E101F910F91FF90EF90DF90CF900895009164
S1131E201A0110911B0182E391E00E94530CEC0112
S1131E30D80113969C938E93129778944E855F8560
S1131E406C857D858A859B850E94820E8FB7F89468
S1131E50809120019091210199838883D09321015D
S1131E60C0932001E0911C01F0911D0100811181BA
S1131E70E8012A813B81A0913201B091330110978E
S1131E80C1F02115310559F216968D919D910D9051
S1131E90BC91A02DE9014E815F8168857985841B01
S1131EA0950BA60BB70B181619061A061B060CF091
S1131EB0B6CF10931D0100931C0180911E019091D7
S1131EC01F0191838083F0931F01E0931E01A09171
S1131ED01C01B0911D011496ED91FC91159730975A
S1131EE041F0A081B1811496ED91FC911597309742
S1131EF0C1F7CD010E94DA0392CF4231B8F42FB773
S1131F00F89450E0440F551FFA01EC5CFE4F9183A6
S1131F108083FA01E453FE4F7183608341E050E013
S1131F20FC015383428322230CF4789408958C019A
S1131F307B016A018FB7F8940E946F037894E114CF
S1131F40F10441F020E030E0A90160E070E0CB0151
S1131F500E94710D8FB7F8940E94FA03789481E07F
S1131F6083BF8895FDCF1092C5008FEF8093C40086
S1131F7088ED8093C10086E08093C200089580912B
S1131F80C0008091C1008091C6008FEF9FEF08953B
S1131F90052E97FB1EF400940E94DF0F57FD07D017
S1131FA00E94ED0F07FC03D04EF40C94DF0F509504
S1131FB04095309521953F4F4F4F5F4F0895909531
S1131FC08095709561957F4F8F4F9F4F0895EE0FC9
S1131FD0FF1F0590F491E02D0994A1E21A2EAA1B8B
S1131FE0BB1BFD010DC0AA1FBB1FEE1FFF1FA217C5
S1131FF0B307E407F50720F0A21BB30BE40BF50BC2
S1132000661F771F881F991F1A9469F7609570954A
S1132010809590959B01AC01BD01CF010895DC0131
S11320202D923D924D925D926D927D928D929D92F4
S1132030AD92BD92CD92DD92ED92FD920D931D93E2
S1132040CD93DD93FF91EF918DB78D938EB78D93E3
S11320508FB78D93ED93FD93882799270994DC011D
S1132060CB0181309105811D2D903D904D905D9067
S11320706D907D908D909D90AD90BD90CD90DD90B4
S1132080ED90FD900D911D91CD91DD91ED91FD911E
S11320900D90F894FEBF0FBEEDBFED91FD91099434
S10720A0F894FFCFDE
S11320A400000000220108010000000022010000D9
S11320B400000000000000000000F001F0015801DD
S10520C40D0207
S9030000FC
