:100000000C9438000C9469060C94D5060C944107A6
:100010000C94AD070C9419080C9455000C94F00E38
:100020000C9455000C949E0E0C9485080C94F108C9
:100030000C945D090C94C9090C94350A0C94A10A1E
:100040000C940D0B0C94790B0C94E50B0C94510C47
:100050000C94BD0C0C94290D0C94950D8F0071001F
:10006000740077007A007D0080008300860089009C
:1000700011241FBECFEFD4E0DEBFCDBF11E0A0E062
:10008000B1E0ECE3F5E202C005900D92A632B107B3
:10009000D9F724E0A6E2B1E001C01D92A138B20771
:1000A000E1F70E9480050C949C120C940000E1E69C
:1000B000F0E080E88083108287EB8093E50087E0A2
:1000C0008093E6008FE08093E70080EC8093E4006B
:1000D00008958A30910500F5FC01E25DFF4F0C9414
:1000E000331280E890E2089581E19EE1089581E174
:1000F0009BE1089580E59BE0089581E49BE10895EC
:1001000081E49FE1089581E191E0089581E59FE117
:10011000089581E59BE0089580E090E0089581E5F1
:1001200095E10895EF92FF921F93CF93DF9300D054
:10013000CDB7DEB71A8219826630710508F0FEC1AC
:1001400090ED980F9A3028F08AE090E09A838983A6
:1001500004C090E0C0979A8389836115710509F006
:100160004EC00F2EFCEEEF2EF12CF02DF70110817A
:1001700089819A810E946900107F8F70812BF7011D
:1001800080830F2EF1EFEF2EF12CF02DF70110816F
:1001900089819A810E946900807F9927959587952A
:1001A000959587959595879595958795107F812B42
:1001B000F70180830F2EF6EFEF2EF12CF02DF701D3
:1001C000108189819A810E94690088279F70107F21
:1001D000192BF70110830F2EFBEFEF2EF12CF02DD2
:1001E000F701108189819A810E946900107F95959D
:1001F000959595959595912BF70190839FC16130C9
:10020000710509F050C00F2EFCEEEF2EF12CF02DF1
:10021000F701108189819A810E9469001F7082957F
:100220009295907F9827807F9827812BF701808374
:100230000F2EF1EFEF2EF12CF02DF70110818981B7
:100240009A810E9469001F70807F812BF701808353
:100250000F2EF6EFEF2EF12CF02DF7011081898192
:100260009A810E94690088279F709595879595953A
:10027000879595958795959587951F70812BF701A3
:1002800080830F2EFBEFEF2EF12CF02DF701108164
:1002900089819A810E9469008827907F1F70192B9D
:1002A000F70110834BC16230710509F04EC00F2E6B
:1002B000FDEEEF2EF12CF02DF701108189819A814E
:1002C0000E946900107F8F70812BF70180830F2EB1
:1002D000F2EFEF2EF12CF02DF701108189819A8138
:1002E0000E946900807F99279595879595958795B8
:1002F0009595879595958795107F812BF70180833C
:100300000F2EF7EFEF2EF12CF02DF70110818981E0
:100310009A810E94690088279F70107F192BF7012E
:1003200010830F2EFCEFEF2EF12CF02DF701108132
:1003300089819A810E946900107F95959595959580
:100340009595912BF7019083F9C06330710509F001
:1003500050C00F2EFDEEEF2EF12CF02DF701108185
:1003600089819A810E9469001F7082959295907F81
:100370009827807F9827812BF70180830F2EF2EF3B
:10038000EF2EF12CF02DF701108189819A810E94C6
:1003900069001F70807F812BF70180830F2EF7EF9C
:1003A000EF2EF12CF02DF701108189819A810E94A6
:1003B000690088279F709595879595958795959560
:1003C0008795959587951F70812BF70180830F2E58
:1003D000FCEFEF2EF12CF02DF701108189819A812D
:1003E0000E9469008827907F1F70192BF7011083E6
:1003F000A5C06430710509F04EC00F2EFEEEEF2E41
:10040000F12CF02DF701108189819A810E946900F9
:10041000107F8F70812BF70180830F2EF3EFEF2E6B
:10042000F12CF02DF701108189819A810E946900D9
:10043000807F99279595879595958795959587952B
:1004400095958795107F812BF70180830F2EF8EF0C
:10045000EF2EF12CF02DF701108189819A810E94F5
:10046000690088279F70107F192BF70110830F2ECA
:10047000FDEFEF2EF12CF02DF701108189819A818B
:100480000E946900107F9595959595959595912B6E
:10049000F701908353C06530710509F04FC00F2EEE
:1004A000FEEEEF2EF12CF02DF701108189819A815B
:1004B0000E9469001F7082959295907F9827807F97
:1004C0009827812BF70180830F2EF3EFEF2EF12C6D
:1004D000F02DF701108189819A810E9469001F70B7
:1004E000807F812BF70180830F2EF8EFEF2EF12C08
:1004F000F02DF701108189819A810E946900882777
:100500009F709595879595958795959587959595E0
:1005100087951F70812BF70180830F2EFDEFEF2E43
:10052000F12CF02DF701108189819A810E946900D8
:100530008827907F1F70192BF70110830F900F9061
:10054000DF91CF911F91FF90EF9008958F929F922E
:10055000AF92BF92CF92DF92EF92FF92CF93DF9351
:100560004B015C01EA0124E630E040E050E00E94EB
:1005700014120F2EFAE0CF2ED12CE12CF12CF02DFD
:10058000A70196010E941412BE0180E3820F0E940F
:1005900092002196C501B401A70196010E94141290
:1005A000862FBE01805D0E949200DF91CF91FF9067
:1005B000EF90DF90CF90BF90AF909F908F90089575
:1005C000CF92DF92EF92FF920F931F93FC0126814F
:1005D00037812150310937832683C12CD12C0F2E2E
:1005E000FFE0EF2EF4E0FF2EF02D8C0120E030E054
:1005F000A90160E070E0CB010E94A50F1F910F914F
:10060000FF90EF90DF90CF900895CF92DF92EF921E
:10061000FF920F931F93FC019091EF0081E09111E5
:1006200080E08093EF00138A128A158A148A8089E9
:10063000918981309105E9F4828593851816190610
:10064000CCF5118A108A048115810F2EF6E0CF2E89
:10065000D12CF02D0F2EFCE0EF2EF2E1FF2EF02D2D
:1006600020E030E0A90160E070E0CB010E94A50F1E
:1006700025C0892BF9F48085918518161906D4F4C4
:1006800081E090E0918B808B048115810F2EF9E041
:10069000CF2ED12CF02D0F2EFCE0EF2EF2E1FF2E0D
:1006A000F02D20E030E0A90160E070E0CB010E9475
:1006B000A50F04C082E090E0918B808B1F910F9179
:1006C000FF90EF90DF90CF900895CF92DF92EF925E
:1006D000FF920F931F93CF93DF93EC0181E090E0A3
:1006E0009D8B8C8B0C811D810F2EFAE0CF2ED12C8F
:1006F000F02D0F2EFCE0EF2EF2E1FF2EF02D20E08A
:1007000030E0A90160E070E0CB010E94A50F90915C
:10071000FE0081E0911180E08093FE00C12CD12C7D
:100720000F2EF5E0EF2EF3E0FF2EF02D8E0120E0EE
:1007300030E0A9016AE572E682E090E00E94A50F30
:10074000DF91CF911F910F91FF90EF90DF90CF90AD
:100750000895CF92DF92EF92FF920F931F93FC01C7
:10076000248935892130310509F447C02089318930
:100770002230310509F044C020853185828593857A
:1007800028173907F4F03323F4F181E090E0918BDE
:10079000808B048115810F2EF9E0CF2ED12CF02D06
:1007A0000F2EFCE0EF2EF2E1FF2EF02D20E030E0E6
:1007B000A90160E070E0CB010E94A50F81E090E00C
:1007C00027C099231CF1118A108A048115810F2EEC
:1007D000F6E0CF2ED12CF02D0F2EFCE0EF2EF2E123
:1007E000FF2EF02D20E030E0A90160E070E0CB01A9
:1007F0000E94A50F81E090E00BC080E090E008C06F
:1008000081E090E005C081E090E002C081E090E0EE
:100810001F910F91FF90EF90DF90CF900895CF93AD
:10082000DF93EC0168857985072E000C880B990B06
:1008300040E050E00E94A6026E817F81072E000CEE
:10084000880B990B42E050E00E94A6026A857B85E6
:10085000072E000C880B990B44E050E00E94A60282
:10086000DF91CF910895CF92DF92EF92FF920F9395
:100870001F93CF93DF93EC0140E050E06EEF71E106
:100880008C819D810E94B610EC81FD81848180FF66
:1008900017C088859985019699878887C12CD12CA6
:1008A0000F2EF9EAEF2EF3E0FF2EF02D8E0120E05F
:1008B00030E0A90160E070E0CB010E94A50F06C105
:1008C00081FF75C02C893D89232B09F070C0888574
:1008D00099850197998788878E819F8101969F834B
:1008E0008E838A899B8901969B8B8A8BC12CD12C04
:1008F0000F2EF0EEEF2EF2E0FF2EF02D8E0120E015
:1009000030E0A9016AE572E682E090E00E94A50F5E
:100910008885998518161906C4F581E02A893B89CE
:10092000263031050CF080E0811109C081E02A8574
:100930003B85121613060CF480E0882331F10C81FC
:100940001D810F2EFAE0CF2ED12CF02D0F2EFCE0C2
:10095000EF2EF2E1FF2EF02D20E030E0A90160E063
:1009600070E0CB010E94A50F0C811D810F2EF9E0D4
:10097000CF2ED12CF02D20E030E0A90162E17AE702
:1009800080E090E00E94A50FA1C0C12CD12C0F2EB9
:10099000F5E6EF2EF3E0FF2EF02D8E0120E030E0A3
:1009A000A90160E070E0CB010E94A50F8FC082FF1B
:1009B00017C08A859B8501969B878A87C12CD12C7D
:1009C0000F2EF9EAEF2EF3E0FF2EF02D8E0120E03E
:1009D00030E0A90160E070E0CB010E94A50F76C075
:1009E00083FF74C08C899D89892B09F06FC08A852B
:1009F0009B8501979B878A878E819F8101969F8324
:100A00008E838A899B8901969B8B8A8BC12CD12CE2
:100A10000F2EF0EEEF2EF2E0FF2EF02D8E0120E0F3
:100A200030E0A9016AE572E682E090E00E94A50F3D
:100A30008A859B8518161906C4F581E02A893B89A9
:100A4000263031050CF080E0811109C081E0288555
:100A50003985121613060CF480E0882331F10C81DD
:100A60001D810F2EFAE0CF2ED12CF02D0F2EFCE0A1
:100A7000EF2EF2E1FF2EF02D20E030E0A90160E042
:100A800070E0CB010E94A50F0C811D810F2EF6E0B6
:100A9000CF2ED12CF02D20E030E0A90162E17AE7E1
:100AA00080E090E00E94A50F11C0C12CD12C0F2E28
:100AB000F5E6EF2EF3E0FF2EF02D8E0120E030E082
:100AC000A90160E070E0CB010E94A50FC12CD12CE0
:100AD0000F2EFFE0EF2EF4E0FF2EF02D8E0120E030
:100AE00030E0A90160E070E0CB010E94A50FDF912A
:100AF000CF911F910F91FF90EF90DF90CF900895CD
:100B000040E050E069E875E080E091E00E94CB11A0
:100B1000FFCFCF93DF93EC010E9457008C819D8122
:100B20000E94E71148E063E374E08E819F810E9498
:100B3000B11144E050E060E070E0CB010E94A602F9
:100B4000DF91CF910895CF93DF9300D000D0CDB740
:100B5000DEB781E292E021E033E0FC0170979183FF
:100B60008083409682179307C1F71092F202109289
:100B7000F102ECE5F1E089E791E09183808386E979
:100B800091E0968F858FA3EBB1E0B3AFA2AF1D923A
:100B90001C92FA83E983EDE5F3E0FC83EB83898122
:100BA0009A8106960E945B128B819C81E981FA8171
:100BB000978B868B918F808F83E491E1948F838FC5
:100BC000158214827D96FA83E983EB81FC81E05AD9
:100BD000FF4FFC83EB8389819A81805D9140F9F618
:100BE000E4EFF1E0118210821582148213821282E6
:100BF000E1E6F0E080E88083108210928500109298
:100C0000840084E08093810081E080936F000F90E6
:100C10000F900F900F90DF91CF910895CF93DF93B6
:100C200000D0CDB7DEB79A83898380911E01909161
:100C30001F0106960E945B12892B59F489819A81C3
:100C400090931F0180931E0161E070E006960E9460
:100C50007B120F900F90DF91CF9108950F931F9308
:100C6000CF93DF93E0913601F0913701309761F136
:100C70008091220190912301009731F1C0912001D0
:100C8000D0912101AA81BB81109779F046815781CB
:100C90006085718516960D911D912D913C91199746
:100CA000401B510B620B730B7AF4FC0120813181E4
:100CB0003093230120932201D183C083909321019B
:100CC000809320010E940E06DF91CF911F910F911A
:100CD00008951F920F920FB60F9211242F933F93F6
:100CE0004F935F936F937F938F939F93AF93BF9334
:100CF000EF93FF9320912E0130912F0140918400BA
:100D000050918500C901032E000CAA0BBB0BDC011E
:100D10009927882760E070E0842B952BA62BB72BB2
:100D20008093300190933101A0933201B09333014D
:100D3000B09B1BC04091840050918500C901019671
:100D4000092E000CAA0BBB0BDC019927882760E059
:100D500070E0842B952BA62BB72B809330019093BA
:100D60003101A0933201B0933301E091D001F091B1
:100D7000D101309739F060E070E0809138019091B6
:100D8000390109950E942E06FF91EF91BF91AF9115
:100D90009F918F917F916F915F914F913F912F9193
:100DA0000F900FBE0F901F9018951F920F920FB6C5
:100DB0000F9211242F933F934F935F936F937F93E1
:100DC0008F939F93AF93BF93EF93FF9320912E0147
:100DD00030912F014091840050918500C901032E6C
:100DE000000CAA0BBB0BDC019927882760E070E0A0
:100DF000842B952BA62BB72B809330019093310138
:100E0000A0933201B0933301B09B1BC0409184008A
:100E100050918500C9010196092E000CAA0BBB0B4D
:100E2000DC019927882760E070E0842B952BA62BA6
:100E3000B72B8093300190933101A0933201B0938E
:100E40003301E091D201F091D301309739F061E0A4
:100E500070E080913A0190913B0109950E942E0625
:100E6000FF91EF91BF91AF919F918F917F916F9182
:100E70005F914F913F912F910F900FBE0F901F9058
:100E800018951F920F920FB60F9211242F933F9334
:100E90004F935F936F937F938F939F93AF93BF9382
:100EA000EF93FF9320912E0130912F014091840008
:100EB00050918500C901032E000CAA0BBB0BDC016D
:100EC0009927882760E070E0842B952BA62BB72B01
:100ED0008093300190933101A0933201B09333019C
:100EE000B09B1BC04091840050918500C9010196C0
:100EF000092E000CAA0BBB0BDC019927882760E0A8
:100F000070E0842B952BA62BB72B80933001909308
:100F10003101A0933201B0933301E091D401F091FB
:100F2000D501309739F062E070E080913C019091FA
:100F30003D0109950E942E06FF91EF91BF91AF915F
:100F40009F918F917F916F915F914F913F912F91E1
:100F50000F900FBE0F901F9018951F920F920FB613
:100F60000F9211242F933F934F935F936F937F932F
:100F70008F939F93AF93BF93EF93FF9320912E0195
:100F800030912F014091840050918500C901032EBA
:100F9000000CAA0BBB0BDC019927882760E070E0EE
:100FA000842B952BA62BB72B809330019093310186
:100FB000A0933201B0933301B09B1BC040918400D9
:100FC00050918500C9010196092E000CAA0BBB0B9C
:100FD000DC019927882760E070E0842B952BA62BF5
:100FE000B72B8093300190933101A0933201B093DD
:100FF0003301E091D601F091D701309739F063E0E9
:1010000070E080913E0190913F0109950E942E066B
:10101000FF91EF91BF91AF919F918F917F916F91D0
:101020005F914F913F912F910F900FBE0F901F90A6
:1010300018951F920F920FB60F9211242F933F9382
:101040004F935F936F937F938F939F93AF93BF93D0
:10105000EF93FF9320912E0130912F014091840056
:1010600050918500C901032E000CAA0BBB0BDC01BB
:101070009927882760E070E0842B952BA62BB72B4F
:101080008093300190933101A0933201B0933301EA
:10109000B09B1BC04091840050918500C90101960E
:1010A000092E000CAA0BBB0BDC019927882760E0F6
:1010B00070E0842B952BA62BB72B80933001909357
:1010C0003101A0933201B0933301E091D801F09146
:1010D000D901309739F064E070E08091400190913F
:1010E000410109950E942E06FF91EF91BF91AF91AA
:1010F0009F918F917F916F915F914F913F912F9130
:101100000F900FBE0F901F9018951F920F920FB661
:101110000F9211242F933F934F935F936F937F937D
:101120008F939F93AF93BF93EF93FF9320912E01E3
:1011300030912F014091840050918500C901032E08
:10114000000CAA0BBB0BDC019927882760E070E03C
:10115000842B952BA62BB72B8093300190933101D4
:10116000A0933201B0933301B09B1BC04091840027
:1011700050918500C9010196092E000CAA0BBB0BEA
:10118000DC019927882760E070E0842B952BA62B43
:10119000B72B8093300190933101A0933201B0932B
:1011A0003301E091DA01F091DB01309739F065E02D
:1011B00070E0809142019091430109950E942E06B2
:1011C000FF91EF91BF91AF919F918F917F916F911F
:1011D0005F914F913F912F910F900FBE0F901F90F5
:1011E00018951F920F920FB60F9211242F933F93D1
:1011F0004F935F936F937F938F939F93AF93BF931F
:10120000EF93FF9320912E0130912F0140918400A4
:1012100050918500C901032E000CAA0BBB0BDC0109
:101220009927882760E070E0842B952BA62BB72B9D
:101230008093300190933101A0933201B093330138
:10124000B09B1BC04091840050918500C90101965C
:10125000092E000CAA0BBB0BDC019927882760E044
:1012600070E0842B952BA62BB72B809330019093A5
:101270003101A0933201B0933301E091DC01F09190
:10128000DD01309739F066E070E080914401909183
:10129000450109950E942E06FF91EF91BF91AF91F4
:1012A0009F918F917F916F915F914F913F912F917E
:1012B0000F900FBE0F901F9018951F920F920FB6B0
:1012C0000F9211242F933F934F935F936F937F93CC
:1012D0008F939F93AF93BF93EF93FF9320912E0132
:1012E00030912F014091840050918500C901032E57
:1012F000000CAA0BBB0BDC019927882760E070E08B
:10130000842B952BA62BB72B809330019093310122
:10131000A0933201B0933301B09B1BC04091840075
:1013200050918500C9010196092E000CAA0BBB0B38
:10133000DC019927882760E070E0842B952BA62B91
:10134000B72B8093300190933101A0933201B09379
:101350003301E091DE01F091DF01309739F067E071
:1013600070E0809146019091470109950E942E06F8
:10137000FF91EF91BF91AF919F918F917F916F916D
:101380005F914F913F912F910F900FBE0F901F9043
:1013900018951F920F920FB60F9211242F933F931F
:1013A0004F935F936F937F938F939F93AF93BF936D
:1013B000EF93FF9320912E0130912F0140918400F3
:1013C00050918500C901032E000CAA0BBB0BDC0158
:1013D0009927882760E070E0842B952BA62BB72BEC
:1013E0008093300190933101A0933201B093330187
:1013F000B09B1BC04091840050918500C9010196AB
:10140000092E000CAA0BBB0BDC019927882760E092
:1014100070E0842B952BA62BB72B809330019093F3
:101420003101A0933201B0933301E091E001F091DA
:10143000E101309739F068E070E0809148019091C7
:10144000490109950E942E06FF91EF91BF91AF913E
:101450009F918F917F916F915F914F913F912F91CC
:101460000F900FBE0F901F9018951F920F920FB6FE
:101470000F9211242F933F934F935F936F937F931A
:101480008F939F93AF93BF93EF93FF9320912E0180
:1014900030912F014091840050918500C901032EA5
:1014A000000CAA0BBB0BDC019927882760E070E0D9
:1014B000842B952BA62BB72B809330019093310171
:1014C000A0933201B0933301B09B1BC040918400C4
:1014D00050918500C9010196092E000CAA0BBB0B87
:1014E000DC019927882760E070E0842B952BA62BE0
:1014F000B72B8093300190933101A0933201B093C8
:101500003301E091E201F091E301309739F069E0B5
:1015100070E080914A0190914B0109950E942E063E
:10152000FF91EF91BF91AF919F918F917F916F91BB
:101530005F914F913F912F910F900FBE0F901F9091
:1015400018951F920F920FB60F9211242F933F936D
:101550004F935F936F937F938F939F93AF93BF93BB
:10156000EF93FF9320912E0130912F014091840041
:1015700050918500C901032E000CAA0BBB0BDC01A6
:101580009927882760E070E0842B952BA62BB72B3A
:101590008093300190933101A0933201B0933301D5
:1015A000B09B1BC04091840050918500C9010196F9
:1015B000092E000CAA0BBB0BDC019927882760E0E1
:1015C00070E0842B952BA62BB72B80933001909342
:1015D0003101A0933201B0933301E091E401F09125
:1015E000E501309739F06AE070E080914C0190910C
:1015F0004D0109950E942E06FF91EF91BF91AF9189
:101600009F918F917F916F915F914F913F912F911A
:101610000F900FBE0F901F9018951F920F920FB64C
:101620000F9211242F933F934F935F936F937F9368
:101630008F939F93AF93BF93EF93FF9320912E01CE
:1016400030912F014091840050918500C901032EF3
:10165000000CAA0BBB0BDC019927882760E070E027
:10166000842B952BA62BB72B8093300190933101BF
:10167000A0933201B0933301B09B1BC04091840012
:1016800050918500C9010196092E000CAA0BBB0BD5
:10169000DC019927882760E070E0842B952BA62B2E
:1016A000B72B8093300190933101A0933201B09316
:1016B0003301E091E601F091E701309739F06BE0FA
:1016C00070E080914E0190914F0109950E942E0685
:1016D000FF91EF91BF91AF919F918F917F916F910A
:1016E0005F914F913F912F910F900FBE0F901F90E0
:1016F00018951F920F920FB60F9211242F933F93BC
:101700004F935F936F937F938F939F93AF93BF9309
:10171000EF93FF9320912E0130912F01409184008F
:1017200050918500C901032E000CAA0BBB0BDC01F4
:101730009927882760E070E0842B952BA62BB72B88
:101740008093300190933101A0933201B093330123
:10175000B09B1BC04091840050918500C901019647
:10176000092E000CAA0BBB0BDC019927882760E02F
:1017700070E0842B952BA62BB72B80933001909390
:101780003101A0933201B0933301E091E801F0916F
:10179000E901309739F06CE070E080915001909150
:1017A000510109950E942E06FF91EF91BF91AF91D3
:1017B0009F918F917F916F915F914F913F912F9169
:1017C0000F900FBE0F901F9018951F920F920FB69B
:1017D0000F9211242F933F934F935F936F937F93B7
:1017E0008F939F93AF93BF93EF93FF9320912E011D
:1017F00030912F014091840050918500C901032E42
:10180000000CAA0BBB0BDC019927882760E070E075
:10181000842B952BA62BB72B80933001909331010D
:10182000A0933201B0933301B09B1BC04091840060
:1018300050918500C9010196092E000CAA0BBB0B23
:10184000DC019927882760E070E0842B952BA62B7C
:10185000B72B8093300190933101A0933201B09364
:101860003301E091EA01F091EB01309739F06DE03E
:1018700070E0809152019091530109950E942E06CB
:10188000FF91EF91BF91AF919F918F917F916F9158
:101890005F914F913F912F910F900FBE0F901F902E
:1018A00018951F920F920FB60F9211242F933F930A
:1018B0004F935F936F937F938F939F93AF93BF9358
:1018C000EF93FF9320912E0130912F0140918400DE
:1018D00050918500C901032E000CAA0BBB0BDC0143
:1018E0009927882760E070E0842B952BA62BB72BD7
:1018F0008093300190933101A0933201B093330172
:10190000B09B1BC04091840050918500C901019695
:10191000092E000CAA0BBB0BDC019927882760E07D
:1019200070E0842B952BA62BB72B809330019093DE
:101930003101A0933201B0933301E091EC01F091B9
:10194000ED01309739F06EE070E080915401909194
:10195000550109950E942E06FF91EF91BF91AF911D
:101960009F918F917F916F915F914F913F912F91B7
:101970000F900FBE0F901F9018951F920F920FB6E9
:101980000F9211242F933F934F935F936F937F9305
:101990008F939F93AF93BF93EF93FF9320912E016B
:1019A00030912F014091840050918500C901032E90
:1019B000000CAA0BBB0BDC019927882760E070E0C4
:1019C000842B952BA62BB72B80933001909331015C
:1019D000A0933201B0933301B09B1BC040918400AF
:1019E00050918500C9010196092E000CAA0BBB0B72
:1019F000DC019927882760E070E0842B952BA62BCB
:101A0000B72B8093300190933101A0933201B093B2
:101A10003301E091EE01F091EF01309739F06FE082
:101A200070E0809156019091570109950E942E0611
:101A3000FF91EF91BF91AF919F918F917F916F91A6
:101A40005F914F913F912F910F900FBE0F901F907C
:101A500018951F920F920FB60F9211242F933F9358
:101A60004F935F936F937F938F939F93AF93BF93A6
:101A7000EF93FF9320912E0130912F01409184002C
:101A800050918500C901032E000CAA0BBB0BDC0191
:101A90009927882760E070E0842B952BA62BB72B25
:101AA0008093300190933101A0933201B0933301C0
:101AB000B09B1BC04091840050918500C9010196E4
:101AC000092E000CAA0BBB0BDC019927882760E0CC
:101AD00070E0842B952BA62BB72B8093300190932D
:101AE0003101A0933201B0933301E091F001F09104
:101AF000F101309739F060E170E0809158019091E8
:101B0000590109950E942E06FF91EF91BF91AF9167
:101B10009F918F917F916F915F914F913F912F9105
:101B20000F900FBE0F901F9018951F920F920FB637
:101B30000F9211242F933F934F935F936F937F9353
:101B40008F939F93AF93BF93EF93FF9320912E01B9
:101B500030912F014091840050918500C901032EDE
:101B6000000CAA0BBB0BDC019927882760E070E012
:101B7000842B952BA62BB72B8093300190933101AA
:101B8000A0933201B0933301B09B1BC040918400FD
:101B900050918500C9010196092E000CAA0BBB0BC0
:101BA000DC019927882760E070E0842B952BA62B19
:101BB000B72B8093300190933101A0933201B09301
:101BC0003301E091F201F091F301309739F061E1D6
:101BD00070E080915A0190915B0109950E942E0658
:101BE000FF91EF91BF91AF919F918F917F916F91F5
:101BF0005F914F913F912F910F900FBE0F901F90CB
:101C00001895EF92FF920F931F93CF93DF937B0171
:101C1000EB01A881B981109761F1FC010681178160
:101C20002085318516964D915D916D917C91199726
:101C3000041715072607370714F41BC0DF01ED91C1
:101C4000FC911197309749F04681578160857185E5
:101C500004171507260737078CF7EC01F983E8838B
:101C6000109721F4F7019183808307C08D939C9393
:101C700004C0EC01B983A883F5CFDF91CF911F9108
:101C80000F91FF90EF900895EF92FF920F931F93A3
:101C9000CF93DF937B01EB01A881B981109761F1AC
:101CA000FC01028113812481358112964D915D9151
:101CB0006D917C911597041715072607370714F4C3
:101CC0001BC0DF01ED91FC911197309749F04281E3
:101CD00053816481758104171507260737078CF730
:101CE000EC01F983E883109721F4F7019183808355
:101CF00007C08D939C9304C0EC01B983A883F5CFF2
:101D0000DF91CF911F910F91FF90EF900895DC012B
:101D1000ED91FC911197309759F48FEF8093EC007F
:101D20008093ED008093EE0081E083BF8895FDCF26
:101D3000208131812D933C93CF0108951F920F9202
:101D40000FB60F9211242F933F934F935F936F938E
:101D50007F938F939F93EF93FF9380912E019091A8
:101D60002F01019690932F0180932E01E091340171
:101D7000F0913501309701F1428153816481758181
:101D800086179707C9F4CA01209184003091850015
:101D9000421B530B4130510529F4809184009091EE
:101DA000850001969093890080938800EFE6F0E02B
:101DB00080818260808305C0EFE6F0E080818D7FC6
:101DC0008083FF91EF919F918F917F916F915F91B0
:101DD0004F913F912F910F900FBE0F901F9018952C
:101DE0001F920F920FB60F921124CF92DF92EF92B3
:101DF000FF922F933F934F935F936F937F938F93B4
:101E00009F93AF93BF93EF93FF93C0902E01D09019
:101E10002F012091840030918500B0990FC00D2CC6
:101E2000000CEE08FF08D601992788276901E12CEC
:101E3000F12CC82AD92AEA2AFB2A15C0209184004D
:101E4000309185008FEFC81AD80A0D2C000CEE08CF
:101E5000FF08D601992788276901E12CF12CC82AAF
:101E6000D92AEA2AFB2AE0913401F0913501309712
:101E700009F442C082819381A481B5818C199D09A6
:101E8000AE09BF09181619061A061B06ECF184E301
:101E900091E00E94870E66E371E00E94010EE091DE
:101EA0003401F0913501309739F182819381A48119
:101EB000B5818C199D09AE09BF09181619061A06B5
:101EC0001B062CF721C09C01409184005091850095
:101ED000841B950B019731F420918400309185008B
:101EE0002F5F3F4F3093890020938800EFE6F0E0AA
:101EF00080818260808305C0EFE6F0E080818D7F85
:101F000080830E942E060CC082819381A481B581BA
:101F100020912E0130912F012A173B0769F7D3CF6B
:101F2000FF91EF91BF91AF919F918F917F916F91B1
:101F30005F914F913F912F91FF90EF90DF90CF9065
:101F40000F900FBE0F901F9018953F924F925F9287
:101F50006F927F928F929F92AF92BF92CF92DF92B9
:101F6000EF92FF920F931F93CF93DF932B013C01CE
:101F700049015A018FB78078382EF89484E291E0B5
:101F80000E94870EEC011B870A87FD86EC86DF86A0
:101F9000CE86332061F0E0911E01F0911F01028096
:101FA000F381E02D82819381A481B58108C0809165
:101FB000300190913101A0913201B0913301480E6E
:101FC000591E6A1E7B1E4A825B826C827D821814B7
:101FD00019041A041B0444F00F2E88248A94982CA8
:101FE000A82CFFE7BF2EF02D840C951CA61CB71C57
:101FF0008E829F82A886B98680912E0190912F01B2
:102000004091840050918500B0990EC0092E000CBB
:10201000AA0BBB0BDC019927882760E070E0842BBA
:10202000952BA62BB72B13C02091840030918500EF
:102030000196092E000CAA0BBB0BDC0199278827FF
:10204000A90160E070E0842B952BA62BB72B481AD2
:10205000590A6A0A7B0A1414150416041704ACF50D
:1020600064E371E0CE010E94440EE0913401F091EE
:102070003501309721F182819381A481B58120912E
:102080002E0130912F012A173B07C9F49C01409182
:10209000840050918500841B950B019731F42091A9
:1020A0008400309185002F5F3F4F3093890020934B
:1020B0008800EFE6F0E080818260808341C0EFE637
:1020C000F0E080818D7F80833BC066E371E0CE01CC
:1020D0000E94010E3320B9F18091220190912301D9
:1020E000009781F1E0912001F091210120913601CA
:1020F0003091370102811381D90116964D915D917E
:102100006D917C911997D80116960D911D912D9185
:102110003C911997401B510B620B730B9AF4DC0135
:102120002D913C9111973093230120932201ED933F
:10213000FC9390932101809320010E940E0602C01F
:10214000332009F07894CE01DF91CF911F910F9148
:10215000FF90EF90DF90CF90BF90AF909F908F90C7
:102160007F906F905F904F903F900895CF92DF9255
:10217000EF92FF920F931F93CF93DF93EC017B01BC
:102180006A011FB71078F894A881B981109761F19E
:102190001496ED91FC911597309741F0A081B18193
:1021A0001496ED91FC9115973097C1F720911E017F
:1021B00030911F012A173B0721F0112309F43DC07C
:1021C00007C0112309F43CC078948FEF9FEF52C0F1
:1021D0008A819B810097D1F1FC011582148236C05F
:1021E000789480E090E046C080911E0190911F019C
:1021F00099838883112329F08A819B81019709F0B3
:102200007894B601CE01F7010995F82E092F8FB702
:10221000F894198218828A819B818230910538F066
:102220001B821A82FC01158214820E940E06112361
:1022300051F078948F2D902F1DC08FEF9FEF1AC013
:102240008FEF9FEF17C08F2D902F14C03B832A83F1
:10225000F901D583C483CD010E940E06E0911E01D1
:10226000F0911F0182819381892B09F4B9CFF98301
:10227000E883C2CFDF91CF911F910F91FF90EF9034
:10228000DF90CF90089500911E0110911F0186E309
:1022900091E00E94870EEC01D80113969C938E93D7
:1022A000129778944E855F856C857D858A859B85A0
:1022B0000E94B6108FB7F894809124019091250167
:1022C00099838883D0932501C0932401E091200154
:1022D000F091210100811181E8012A813B81A091C7
:1022E0003601B09137011097C1F02115310559F22F
:1022F00016968D919D910D90BC91A02DE9014E8176
:102300005F8168857985841B950BA60BB70B181622
:1023100019061A061B060CF0B6CF10932101009384
:102320002001809122019091230191838083F09379
:102330002301E0932201A0912001B0912101149684
:10234000ED91FC911597309741F0A081B1811496E1
:10235000ED91FC9115973097C1F7CD010E940E06C3
:1023600092CF4231B8F42FB7F89450E0440F551F84
:10237000FA01E85CFE4F91838083FA01E053FE4F3F
:102380007183608341E050E0FC0153834283222348
:102390000CF4789408958C017B016A018FB7F8944E
:1023A0000E94A3057894E114F10441F020E030E0AC
:1023B000A90160E070E0CB010E94A50F8FB7F894EF
:1023C0000E942E06789481E083BF8895FDCF83E339
:1023D0008093C400E1ECF0E080818861808380819B
:1023E00080688083E2ECF0E08081877F8083808159
:1023F000826080838081846080830895DC01E0ECCA
:10240000F0E090819923ECF72091C60030E015961A
:102410003C932E9314970895E0ECF0E0808185FFC3
:10242000FDCF6093C6000895052E97FB1EF400941F
:102430000E942B1257FD07D00E94391207FC03D0CF
:102440004EF40C942B1250954095309521953F4FAA
:102450004F4F5F4F089590958095709561957F4F90
:102460008F4F9F4F0895EE0FFF1F0590F491E02DC1
:102470000994A1E21A2EAA1BBB1BFD010DC0AA1FC5
:10248000BB1FEE1FFF1FA217B307E407F50720F0DD
:10249000A21BB30BE40BF50B661F771F881F991F58
:1024A0001A9469F760957095809590959B01AC01A1
:1024B000BD01CF010895DC012D923D924D925D92B8
:1024C0006D927D928D929D92AD92BD92CD92DD9254
:1024D000ED92FD920D931D93CD93DD93FF91EF91BE
:1024E0008DB78D938EB78D938FB78D93ED93FD93AD
:1024F000882799270994DC01CB0181309105811D42
:102500002D903D904D905D906D907D908D909D9023
:10251000AD90BD90CD90DD90ED90FD900D911D9111
:10252000CD91DD91ED91FD910D90F894FEBF0FBE20
:0C253000EDBFED91FD910994F894FFCFF0
:10253C000000000026010801000000002601000038
:10254C000000000000000000020000000000F40188
:06255C00F4015C01110214
:00000001FF
