:100000000C9465000C94F5030C9461040C94CD04DD
:100010000C9439050C94A5050C9482000C94390CB1
:100020000C9482000C94E70B0C9411060C947D0642
:100030000C94E9060C9455070C94C1070C942D08F8
:100040000C9499080C9405090C9471090C94DD0921
:100050000C94490A0C94B50A0C94210BBC009E0028
:10006000A100A400A700AA00AD00B000B300B60034
:1000700008000000BE922449123EABAAAA2ABECDB7
:10008000CCCC4C3E00000080BEABAAAAAA3E000029
:100090000000BF000000803F000000000008417821
:1000A000D3BB4387D1133D190E3CC3BD4282AD2B58
:1000B0003E68EC8276BED98FE1A93E4C80EFFFBE50
:1000C00001C4FF7F3F000000000011241FBECFEFDE
:1000D000D4E0DEBFCDBF11E0A0E0B1E0E4E3F0E2A8
:1000E00002C005900D92A630B107D9F724E0A6E032
:1000F000B1E001C01D92A136B207E1F70E94910361
:100100000C9418100C940000E1E6F0E080E8808385
:10011000108287EB8093E50087E08093E6008FE014
:100120008093E70080EC8093E40008958A30910585
:1001300000F5FC01E25DFF4F0C94AF0F80E890E208
:10014000089581E19EE1089581E19BE1089580E5B4
:100150009BE0089581E49BE1089581E49FE1089587
:1001600081E191E0089581E59FE1089581E59BE0BB
:10017000089580E090E0089581E595E10895EF927B
:10018000FF921F93CF93DF9300D0CDB7DEB71A82D3
:1001900019826630710508F0FEC190ED980F9A3013
:1001A00028F08AE090E09A83898304C090E0C097A9
:1001B0009A8389836115710509F04EC00F2EFCEEFC
:1001C000EF2EF12CF02DF701108189819A810E9488
:1001D0009600107F8F70812BF70180830F2EF1EF37
:1001E000EF2EF12CF02DF701108189819A810E9468
:1001F0009600807F992795958795959587959595F4
:10020000879595958795107F812BF70180830F2E19
:10021000F6EFEF2EF12CF02DF701108189819A81F4
:100220000E94960088279F70107F192BF70110837A
:100230000F2EFBEFEF2EF12CF02DF70110818981AD
:100240009A810E949600107F959595959595959524
:10025000912BF70190839FC16130710509F050C067
:100260000F2EFCEEEF2EF12CF02DF701108189817D
:100270009A810E9496001F7082959295907F982790
:10028000807F9827812BF70180830F2EF1EFEF2ECF
:10029000F12CF02DF701108189819A810E9496003E
:1002A0001F70807F812BF70180830F2EF6EFEF2EDA
:1002B000F12CF02DF701108189819A810E9496001E
:1002C00088279F709595879595958795959587959E
:1002D000959587951F70812BF70180830F2EFBEF7B
:1002E000EF2EF12CF02DF701108189819A810E9467
:1002F00096008827907F1F70192BF70110834BC140
:100300006230710509F04EC00F2EFDEEEF2EF12C7C
:10031000F02DF701108189819A810E949600107F4B
:100320008F70812BF70180830F2EF2EFEF2EF12CCF
:10033000F02DF701108189819A810E949600807FBB
:1003400099279595879595958795959587959595F1
:100350008795107F812BF70180830F2EF7EFEF2E0B
:10036000F12CF02DF701108189819A810E9496006D
:1003700088279F70107F192BF70110830F2EFCEF39
:10038000EF2EF12CF02DF701108189819A810E94C6
:100390009600107F9595959595959595912BF701DC
:1003A0009083F9C06330710509F050C00F2EFDEE47
:1003B000EF2EF12CF02DF701108189819A810E9496
:1003C00096001F7082959295907F9827807F98273E
:1003D000812BF70180830F2EF2EFEF2EF12CF02D01
:1003E000F701108189819A810E9496001F70807F99
:1003F000812BF70180830F2EF7EFEF2EF12CF02DDC
:10040000F701108189819A810E94960088279F7048
:1004100095958795959587959595879595958795C4
:100420001F70812BF70180830F2EFCEFEF2EF12C34
:10043000F02DF701108189819A810E94960088270A
:10044000907F1F70192BF7011083A5C064307105D0
:1004500009F04EC00F2EFEEEEF2EF12CF02DF7011D
:10046000108189819A810E949600107F8F70812B64
:10047000F70180830F2EF3EFEF2EF12CF02DF70113
:10048000108189819A810E949600807F9927959595
:100490008795959587959595879595958795107FDF
:1004A000812BF70180830F2EF8EFEF2EF12CF02D2A
:1004B000F701108189819A810E94960088279F7098
:1004C000107F192BF70110830F2EFDEFEF2EF12C6B
:1004D000F02DF701108189819A810E949600107F8A
:1004E0009595959595959595912BF701908353C08A
:1004F0006530710509F04FC00F2EFEEEEF2EF12C86
:10050000F02DF701108189819A810E9496001F7059
:1005100082959295907F9827807F9827812BF7016D
:1005200080830F2EF3EFEF2EF12CF02DF7011081C9
:1005300089819A810E9496001F70807F812BF7012C
:1005400080830F2EF8EFEF2EF12CF02DF7011081A4
:1005500089819A810E94960088279F70959587953A
:100560009595879595958795959587951F70812B7E
:10057000F70180830F2EFDEFEF2EF12CF02DF70108
:10058000108189819A810E9496008827907F1F7030
:10059000192BF70110830F900F90DF91CF911F91CE
:1005A000FF90EF9008954F925F926F927F928F929B
:1005B0009F92AF92BF92CF92DF92EF92FF920F93F2
:1005C0001F93CF93DF93CDB7DEB762970FB6F89442
:1005D000DEBF0FBECDBF6B877C878D879E87611581
:1005E000710581059105C1F00E94C00D0E94A40E05
:1005F0000E94FB0D20E030E040E85FE30E941C0D0C
:100600000E94880D6F87788B898B9A8B1616170638
:10061000180619064CF068C081E090E0A0E0B0E058
:100620008F87988BA98BBA8BAF84B88891E0A91A71
:10063000B108DE0111964D01412C512C32010F2ED3
:10064000FAE0CF2ED12CE12CF12CF02D8B859C855E
:10065000AD85BE858F839887A987BA8785011A14CF
:100660001B047CF46F81788589859A85A7019601A2
:100670000E94900F2F83388749875A8701501109AC
:1006800089F76F81788589859A85A70196010E94EF
:10069000900F6F83788789879A878F819885A9853E
:1006A000BA85805DD4018D934D01B1E0AB1AB108DC
:1006B000EFEF4E1A5E0A6E0A7E0A8F859889A98925
:1006C000BA89481659066A067B060CF4BFCF0CC0DF
:1006D000B801D7018D917D010E94BF000F5F1F4FB0
:1006E00006301105A9F706C0FE0131967F0100E032
:1006F00010E0EECF62960FB6F894DEBF0FBECDBF0E
:10070000DF91CF911F910F91FF90EF90DF90CF90ED
:10071000BF90AF909F908F907F906F905F904F9021
:1007200008950E94840086E091E00E94EE0C0E94F1
:10073000050DFDCFCF93DF9300D0CDB7DEB79A8301
:100740008983809100019091010106960E94D70F44
:10075000892B59F489819A8190930101809300013A
:1007600061E070E006960E94F70F0F900F90DF9106
:10077000CF9108950F931F93CF93DF93E0911601CC
:10078000F0911701309761F180910401909105017A
:10079000009731F1C0910201D0910301AA81BB8180
:1007A000109779F0468157816085718516960D9175
:1007B0001D912D913C911997401B510B620B730BAE
:1007C0007AF4FC01208131813093050120930401EA
:1007D000D183C08390930301809302010E949A0306
:1007E000DF91CF911F910F9108951F920F920FB635
:1007F0000F9211242F933F934F935F936F937F93A7
:100800008F939F93AF93BF93EF93FF9320910E012C
:1008100030910F014091840050918500C901032E51
:10082000000CAA0BBB0BDC019927882760E070E065
:10083000842B952BA62BB72B80931001909311013D
:10084000A0931201B0931301B09B1BC04091840090
:1008500050918500C9010196092E000CAA0BBB0B13
:10086000DC019927882760E070E0842B952BA62B6C
:10087000B72B8093100190931101A0931201B093B4
:100880001301E091B001F091B101309739F060E0CF
:1008900070E0809118019091190109950E94BA03A6
:1008A000FF91EF91BF91AF919F918F917F916F9148
:1008B0005F914F913F912F910F900FBE0F901F901E
:1008C00018951F920F920FB60F9211242F933F93FA
:1008D0004F935F936F937F938F939F93AF93BF9348
:1008E000EF93FF9320910E0130910F01409184000E
:1008F00050918500C901032E000CAA0BBB0BDC0133
:100900009927882760E070E0842B952BA62BB72BC6
:100910008093100190931101A0931201B0931301E1
:10092000B09B1BC04091840050918500C901019685
:10093000092E000CAA0BBB0BDC019927882760E06D
:1009400070E0842B952BA62BB72B809310019093EE
:100950001101A0931201B0931301E091B201F09143
:10096000B301309739F061E070E080911A01909105
:100970001B0109950E94BA03FF91EF91BF91AF91BE
:100980009F918F917F916F915F914F913F912F91A7
:100990000F900FBE0F901F9018951F920F920FB6D9
:1009A0000F9211242F933F934F935F936F937F93F5
:1009B0008F939F93AF93BF93EF93FF9320910E017B
:1009C00030910F014091840050918500C901032EA0
:1009D000000CAA0BBB0BDC019927882760E070E0B4
:1009E000842B952BA62BB72B80931001909311018C
:1009F000A0931201B0931301B09B1BC040918400DF
:100A000050918500C9010196092E000CAA0BBB0B61
:100A1000DC019927882760E070E0842B952BA62BBA
:100A2000B72B8093100190931101A0931201B09302
:100A30001301E091B401F091B501309739F062E013
:100A400070E080911C0190911D0109950E94BA03EC
:100A5000FF91EF91BF91AF919F918F917F916F9196
:100A60005F914F913F912F910F900FBE0F901F906C
:100A700018951F920F920FB60F9211242F933F9348
:100A80004F935F936F937F938F939F93AF93BF9396
:100A9000EF93FF9320910E0130910F01409184005C
:100AA00050918500C901032E000CAA0BBB0BDC0181
:100AB0009927882760E070E0842B952BA62BB72B15
:100AC0008093100190931101A0931201B093130130
:100AD000B09B1BC04091840050918500C9010196D4
:100AE000092E000CAA0BBB0BDC019927882760E0BC
:100AF00070E0842B952BA62BB72B8093100190933D
:100B00001101A0931201B0931301E091B601F0918D
:100B1000B701309739F063E070E080911E01909149
:100B20001F0109950E94BA03FF91EF91BF91AF9108
:100B30009F918F917F916F915F914F913F912F91F5
:100B40000F900FBE0F901F9018951F920F920FB627
:100B50000F9211242F933F934F935F936F937F9343
:100B60008F939F93AF93BF93EF93FF9320910E01C9
:100B700030910F014091840050918500C901032EEE
:100B8000000CAA0BBB0BDC019927882760E070E002
:100B9000842B952BA62BB72B8093100190931101DA
:100BA000A0931201B0931301B09B1BC0409184002D
:100BB00050918500C9010196092E000CAA0BBB0BB0
:100BC000DC019927882760E070E0842B952BA62B09
:100BD000B72B8093100190931101A0931201B09351
:100BE0001301E091B801F091B901309739F064E058
:100BF00070E0809120019091210109950E94BA0333
:100C0000FF91EF91BF91AF919F918F917F916F91E4
:100C10005F914F913F912F910F900FBE0F901F90BA
:100C200018951F920F920FB60F9211242F933F9396
:100C30004F935F936F937F938F939F93AF93BF93E4
:100C4000EF93FF9320910E0130910F0140918400AA
:100C500050918500C901032E000CAA0BBB0BDC01CF
:100C60009927882760E070E0842B952BA62BB72B63
:100C70008093100190931101A0931201B09313017E
:100C8000B09B1BC04091840050918500C901019622
:100C9000092E000CAA0BBB0BDC019927882760E00A
:100CA00070E0842B952BA62BB72B8093100190938B
:100CB0001101A0931201B0931301E091BA01F091D8
:100CC000BB01309739F065E070E08091220190918E
:100CD000230109950E94BA03FF91EF91BF91AF9153
:100CE0009F918F917F916F915F914F913F912F9144
:100CF0000F900FBE0F901F9018951F920F920FB676
:100D00000F9211242F933F934F935F936F937F9391
:100D10008F939F93AF93BF93EF93FF9320910E0117
:100D200030910F014091840050918500C901032E3C
:100D3000000CAA0BBB0BDC019927882760E070E050
:100D4000842B952BA62BB72B809310019093110128
:100D5000A0931201B0931301B09B1BC0409184007B
:100D600050918500C9010196092E000CAA0BBB0BFE
:100D7000DC019927882760E070E0842B952BA62B57
:100D8000B72B8093100190931101A0931201B0939F
:100D90001301E091BC01F091BD01309739F066E09C
:100DA00070E0809124019091250109950E94BA0379
:100DB000FF91EF91BF91AF919F918F917F916F9133
:100DC0005F914F913F912F910F900FBE0F901F9009
:100DD00018951F920F920FB60F9211242F933F93E5
:100DE0004F935F936F937F938F939F93AF93BF9333
:100DF000EF93FF9320910E0130910F0140918400F9
:100E000050918500C901032E000CAA0BBB0BDC011D
:100E10009927882760E070E0842B952BA62BB72BB1
:100E20008093100190931101A0931201B0931301CC
:100E3000B09B1BC04091840050918500C901019670
:100E4000092E000CAA0BBB0BDC019927882760E058
:100E500070E0842B952BA62BB72B809310019093D9
:100E60001101A0931201B0931301E091BE01F09122
:100E7000BF01309739F067E070E0809126019091D2
:100E8000270109950E94BA03FF91EF91BF91AF919D
:100E90009F918F917F916F915F914F913F912F9192
:100EA0000F900FBE0F901F9018951F920F920FB6C4
:100EB0000F9211242F933F934F935F936F937F93E0
:100EC0008F939F93AF93BF93EF93FF9320910E0166
:100ED00030910F014091840050918500C901032E8B
:100EE000000CAA0BBB0BDC019927882760E070E09F
:100EF000842B952BA62BB72B809310019093110177
:100F0000A0931201B0931301B09B1BC040918400C9
:100F100050918500C9010196092E000CAA0BBB0B4C
:100F2000DC019927882760E070E0842B952BA62BA5
:100F3000B72B8093100190931101A0931201B093ED
:100F40001301E091C001F091C101309739F068E0E0
:100F500070E0809128019091290109950E94BA03BF
:100F6000FF91EF91BF91AF919F918F917F916F9181
:100F70005F914F913F912F910F900FBE0F901F9057
:100F800018951F920F920FB60F9211242F933F9333
:100F90004F935F936F937F938F939F93AF93BF9381
:100FA000EF93FF9320910E0130910F014091840047
:100FB00050918500C901032E000CAA0BBB0BDC016C
:100FC0009927882760E070E0842B952BA62BB72B00
:100FD0008093100190931101A0931201B09313011B
:100FE000B09B1BC04091840050918500C9010196BF
:100FF000092E000CAA0BBB0BDC019927882760E0A7
:1010000070E0842B952BA62BB72B80931001909327
:101010001101A0931201B0931301E091C201F0916C
:10102000C301309739F069E070E080912A01909116
:101030002B0109950E94BA03FF91EF91BF91AF91E7
:101040009F918F917F916F915F914F913F912F91E0
:101050000F900FBE0F901F9018951F920F920FB612
:101060000F9211242F933F934F935F936F937F932E
:101070008F939F93AF93BF93EF93FF9320910E01B4
:1010800030910F014091840050918500C901032ED9
:10109000000CAA0BBB0BDC019927882760E070E0ED
:1010A000842B952BA62BB72B8093100190931101C5
:1010B000A0931201B0931301B09B1BC04091840018
:1010C00050918500C9010196092E000CAA0BBB0B9B
:1010D000DC019927882760E070E0842B952BA62BF4
:1010E000B72B8093100190931101A0931201B0933C
:1010F0001301E091C401F091C501309739F06AE025
:1011000070E080912C0190912D0109950E94BA0305
:10111000FF91EF91BF91AF919F918F917F916F91CF
:101120005F914F913F912F910F900FBE0F901F90A5
:1011300018951F920F920FB60F9211242F933F9381
:101140004F935F936F937F938F939F93AF93BF93CF
:10115000EF93FF9320910E0130910F014091840095
:1011600050918500C901032E000CAA0BBB0BDC01BA
:101170009927882760E070E0842B952BA62BB72B4E
:101180008093100190931101A0931201B093130169
:10119000B09B1BC04091840050918500C90101960D
:1011A000092E000CAA0BBB0BDC019927882760E0F5
:1011B00070E0842B952BA62BB72B80931001909376
:1011C0001101A0931201B0931301E091C601F091B7
:1011D000C701309739F06BE070E080912E0190915B
:1011E0002F0109950E94BA03FF91EF91BF91AF9132
:1011F0009F918F917F916F915F914F913F912F912F
:101200000F900FBE0F901F9018951F920F920FB660
:101210000F9211242F933F934F935F936F937F937C
:101220008F939F93AF93BF93EF93FF9320910E0102
:1012300030910F014091840050918500C901032E27
:10124000000CAA0BBB0BDC019927882760E070E03B
:10125000842B952BA62BB72B809310019093110113
:10126000A0931201B0931301B09B1BC04091840066
:1012700050918500C9010196092E000CAA0BBB0BE9
:10128000DC019927882760E070E0842B952BA62B42
:10129000B72B8093100190931101A0931201B0938A
:1012A0001301E091C801F091C901309739F06CE069
:1012B00070E0809130019091310109950E94BA034C
:1012C000FF91EF91BF91AF919F918F917F916F911E
:1012D0005F914F913F912F910F900FBE0F901F90F4
:1012E00018951F920F920FB60F9211242F933F93D0
:1012F0004F935F936F937F938F939F93AF93BF931E
:10130000EF93FF9320910E0130910F0140918400E3
:1013100050918500C901032E000CAA0BBB0BDC0108
:101320009927882760E070E0842B952BA62BB72B9C
:101330008093100190931101A0931201B0931301B7
:10134000B09B1BC04091840050918500C90101965B
:10135000092E000CAA0BBB0BDC019927882760E043
:1013600070E0842B952BA62BB72B809310019093C4
:101370001101A0931201B0931301E091CA01F09101
:10138000CB01309739F06DE070E08091320190919F
:10139000330109950E94BA03FF91EF91BF91AF917C
:1013A0009F918F917F916F915F914F913F912F917D
:1013B0000F900FBE0F901F9018951F920F920FB6AF
:1013C0000F9211242F933F934F935F936F937F93CB
:1013D0008F939F93AF93BF93EF93FF9320910E0151
:1013E00030910F014091840050918500C901032E76
:1013F000000CAA0BBB0BDC019927882760E070E08A
:10140000842B952BA62BB72B809310019093110161
:10141000A0931201B0931301B09B1BC040918400B4
:1014200050918500C9010196092E000CAA0BBB0B37
:10143000DC019927882760E070E0842B952BA62B90
:10144000B72B8093100190931101A0931201B093D8
:101450001301E091CC01F091CD01309739F06EE0AD
:1014600070E0809134019091350109950E94BA0392
:10147000FF91EF91BF91AF919F918F917F916F916C
:101480005F914F913F912F910F900FBE0F901F9042
:1014900018951F920F920FB60F9211242F933F931E
:1014A0004F935F936F937F938F939F93AF93BF936C
:1014B000EF93FF9320910E0130910F014091840032
:1014C00050918500C901032E000CAA0BBB0BDC0157
:1014D0009927882760E070E0842B952BA62BB72BEB
:1014E0008093100190931101A0931201B093130106
:1014F000B09B1BC04091840050918500C9010196AA
:10150000092E000CAA0BBB0BDC019927882760E091
:1015100070E0842B952BA62BB72B80931001909312
:101520001101A0931201B0931301E091CE01F0914B
:10153000CF01309739F06FE070E0809136019091E3
:10154000370109950E94BA03FF91EF91BF91AF91C6
:101550009F918F917F916F915F914F913F912F91CB
:101560000F900FBE0F901F9018951F920F920FB6FD
:101570000F9211242F933F934F935F936F937F9319
:101580008F939F93AF93BF93EF93FF9320910E019F
:1015900030910F014091840050918500C901032EC4
:1015A000000CAA0BBB0BDC019927882760E070E0D8
:1015B000842B952BA62BB72B8093100190931101B0
:1015C000A0931201B0931301B09B1BC04091840003
:1015D00050918500C9010196092E000CAA0BBB0B86
:1015E000DC019927882760E070E0842B952BA62BDF
:1015F000B72B8093100190931101A0931201B09327
:101600001301E091D001F091D101309739F060E100
:1016100070E0809138019091390109950E94BA03D8
:10162000FF91EF91BF91AF919F918F917F916F91BA
:101630005F914F913F912F910F900FBE0F901F9090
:1016400018951F920F920FB60F9211242F933F936C
:101650004F935F936F937F938F939F93AF93BF93BA
:10166000EF93FF9320910E0130910F014091840080
:1016700050918500C901032E000CAA0BBB0BDC01A5
:101680009927882760E070E0842B952BA62BB72B39
:101690008093100190931101A0931201B093130154
:1016A000B09B1BC04091840050918500C9010196F8
:1016B000092E000CAA0BBB0BDC019927882760E0E0
:1016C00070E0842B952BA62BB72B80931001909361
:1016D0001101A0931201B0931301E091D201F09196
:1016E000D301309739F061E170E080913A01909137
:1016F0003B0109950E94BA03FF91EF91BF91AF9111
:101700009F918F917F916F915F914F913F912F9119
:101710000F900FBE0F901F901895EF92FF920F93AE
:101720001F93CF93DF937B01EB01A881B9811097C1
:1017300061F1FC01068117812085318516964D9156
:101740005D916D917C91199704171507260737074E
:1017500014F41BC0DF01ED91FC911197309749F013
:10176000468157816085718504171507260737075D
:101770008CF7EC01F983E883109721F4F70191834A
:10178000808307C08D939C9304C0EC01B983A88328
:10179000F5CFDF91CF911F910F91FF90EF900895BA
:1017A000DC01ED91FC911197309759F48FEF809304
:1017B000EC008093ED008093EE0081E083BF88957C
:1017C000FDCF208131812D933C93CF0108951F924D
:1017D0000F920FB60F9211242F933F934F935F9365
:1017E0006F937F938F939F93EF93FF9380910E015D
:1017F00090910F01019690930F0180930E01E0915B
:101800001401F0911501309701F1428153816481F7
:10181000758186179707C9F4CA0120918400309119
:101820008500421B530B4130510529F480918400FF
:101830009091850001969093890080938800EFE64F
:10184000F0E080818260808305C0EFE6F0E0808177
:101850008D7F8083FF91EF919F918F917F916F9109
:101860005F914F913F912F910F900FBE0F901F905E
:1018700018951F920F920FB60F921124CF92DF92FC
:10188000EF92FF922F933F934F935F936F937F93CA
:101890008F939F93AF93BF93EF93FF93C0900E01ED
:1018A000D0900F012091840030918500B0990FC035
:1018B0000D2C000CEE08FF08D60199278827690136
:1018C000E12CF12CC82AD92AEA2AFB2A15C020913A
:1018D0008400309185008FEFC81AD80A0D2C000CB7
:1018E000EE08FF08D601992788276901E12CF12C21
:1018F000C82AD92AEA2AFB2AE0911401F09115019D
:10190000309709F442C082819381A481B5818C19FA
:101910009D09AE09BF09181619061A061B06ECF137
:1019200084E191E00E94D00B66E171E00E948D0B92
:10193000E0911401F0911501309739F18281938182
:10194000A481B5818C199D09AE09BF091816190625
:101950001A061B062CF721C09C014091840050916F
:101960008500841B950B019731F420918400309100
:1019700085002F5F3F4F3093890020938800EFE66A
:10198000F0E080818260808305C0EFE6F0E0808136
:101990008D7F80830E94BA030CC082819381A481D1
:1019A000B58120910E0130910F012A173B0769F78D
:1019B000D3CFFF91EF91BF91AF919F918F917F9185
:1019C0006F915F914F913F912F91FF90EF90DF903A
:1019D000CF900F900FBE0F901F90189583E38093C8
:1019E000C400E1ECF0E080818861808380818068C0
:1019F0008083E2ECF0E08081877F80838081826059
:101A000080838081846080830895CF938091C0001B
:101A100088237CF4C091C6006C2F70E080E090E0D9
:101A20000E94D302E0ECF0E0808185FFFDCFC093FF
:101A3000C600CF9108955058BB27AA270E94330DA6
:101A40000C94520E0E94440E38F00E944B0E20F06F
:101A500039F49F3F19F426F40C94410E0EF4E095EE
:101A6000E7FB0C94120EE92F0E94630E58F3BA178D
:101A7000620773078407950720F079F4A6F50C94A4
:101A80009D0E0EF4E0950B2EBA2FA02D0B01B9017F
:101A900090010C01CA01A0011124FF27591B99F0E4
:101AA000593F50F4503E68F11A16F040A22F232FF0
:101AB000342F4427585FF3CF469537952795A79540
:101AC000F0405395C9F77EF41F16BA0B620B730BE7
:101AD000840BBAF09150A1F0FF0FBB1F661F771F58
:101AE000881FC2F70EC0BA0F621F731F841F48F40D
:101AF000879577956795B795F7959E3F08F0B0CF96
:101B00009395880F08F09927EE0F9795879508957C
:101B10000E948F0D6894B1110C949E0E08950E943E
:101B20006B0E88F09F5798F0B92F9927B751B0F0F6
:101B3000E1F0660F771F881F991F1AF0BA95C9F751
:101B400014C0B13091F00E949D0EB1E008950C9444
:101B50009D0E672F782F8827B85F39F0B93FCCF3F7
:101B6000869577956795B395D9F73EF490958095CE
:101B7000709561957F4F8F4F9F4F0895E89409C0EE
:101B800097FB3EF490958095709561957F4F8F4FB0
:101B90009F4F9923A9F0F92F96E9BB279395F695C6
:101BA000879577956795B795F111F8CFFAF4BB0F44
:101BB00011F460FF1BC06F5F7F4F8F4F9F4F16C0A8
:101BC000882311F096E911C0772321F09EE8872F32
:101BD000762F05C0662371F096E8862F70E060E0EE
:101BE0002AF09A95660F771F881FDAF7880F969567
:101BF000879597F908950E94850E90F09F3748F4D5
:101C0000911116F00C949E0E60E070E080E89FEB5E
:101C1000089526F41B16611D711D811D0C94180E6C
:101C20000C94330E97F99F6780E870E060E00895A8
:101C3000882371F4772321F09850872B762F07C0E3
:101C4000662311F499270DC09051862B70E060E057
:101C50002AF09A95660F771F881FDAF7880F9695F6
:101C6000879597F908959F3F31F0915020F487951B
:101C700077956795B795880F911D9695879597F9F4
:101C800008959FEF80EC089500240A941616170615
:101C900018060906089500240A941216130614065D
:101CA00005060895092E0394000C11F4882352F0C0
:101CB000BB0F40F4BF2B11F460FF04C06F5F7F4F78
:101CC0008F4F9F4F089557FD9058440F551F59F05F
:101CD0005F3F71F04795880F97FB991F61F09F3F19
:101CE00079F087950895121613061406551FF2CF42
:101CF0004695F1DF08C0161617061806991FF1CF92
:101D0000869571056105089408950E946B0EA0F0F8
:101D1000BEE7B91788F4BB279F3860F41616B11DCB
:101D2000672F782F8827985FF7CF869577956795E7
:101D3000B11D93959639C8F30895E894BB2766279B
:101D40007727CB0197F908950E94B40E29ED3BE562
:101D50004EED5EE30C94FC0E16F00C94330E0C94D6
:101D6000410E68940C94120E0E946B0EA8F39923F6
:101D7000C1F3AEF3DF93CF931F930F93FF92C92F5D
:101D8000DD2788232AF02197660F771F881FDAF74F
:101D900020E030E040E85FEB9FE3883920F0803EB0
:101DA00038F021968F770E941C0DE0E7F0E004C028
:101DB0000E941C0DEDE9F0E00E94690F8B01BE014D
:101DC000EC01FB2E6F5771097595771F880B990BE6
:101DD0000E94C00D28E132E741E35FE30E940F0F4C
:101DE000AF2D9801AE01FF900F911F91CF91DF9120
:101DF0000E94330D0C94520E0E940F0F0C94520E41
:101E00000E94440E38F00E944B0E20F0952311F0F2
:101E10000C94120E0C94410E11240C949E0E0E94F0
:101E2000630E70F3959FC1F3950F50E0551F629FAD
:101E3000F001729FBB27F00DB11D639FAA27F00D23
:101E4000B11DAA1F649F6627B00DA11D661F829F4A
:101E50002227B00DA11D621F739FB00DA11D621F2F
:101E6000839FA00D611D221F749F3327A00D611D4C
:101E7000231F849F600D211D822F762F6A2F11242E
:101E80009F5750409AF0F1F088234AF0EE0FFF1F61
:101E9000BB1F661F771F881F91505040A9F79E3FB8
:101EA000510580F00C94120E0C949E0E5F3FE4F3EB
:101EB000983ED4F3869577956795B795F795E7950E
:101EC0009F5FC1F7FE2B880F911D9695879597F917
:101ED0000895DF93CF931F930F93FF92EF92DF92BA
:101EE0007B018C01689406C0DA2EEF010E940F0F6F
:101EF000FE01E894A5912591359145915591A6F360
:101F0000EF010E94330DFE019701A801DA9469F7F1
:101F1000DF90EF90FF900F911F91CF91DF91089587
:101F2000052E97FB1EF400940E94A70F57FD07D0C3
:101F30000E94B50F07FC03D04EF40C94A70F5095E8
:101F40004095309521953F4F4F4F5F4F08959095A5
:101F50008095709561957F4F8F4F9F4F0895EE0F3D
:101F6000FF1F0590F491E02D0994A1E21A2EAA1BFF
:101F7000BB1BFD010DC0AA1FBB1FEE1FFF1FA21739
:101F8000B307E407F50720F0A21BB30BE40BF50B36
:101F9000661F771F881F991F1A9469F760957095BF
:101FA000809590959B01AC01BD01CF010895DC01A6
:101FB0002D923D924D925D926D927D928D929D9269
:101FC000AD92BD92CD92DD92ED92FD920D931D9357
:101FD000CD93DD93FF91EF918DB78D938EB78D9358
:101FE0008FB78D93ED93FD93882799270994DC0192
:101FF000CB0181309105811D2D903D904D905D90DC
:102000006D907D908D909D90AD90BD90CD90DD9028
:10201000ED90FD900D911D91CD91DD91ED91FD9192
:102020000D90F894FEBF0FBEEDBFED91FD910994A8
:04203000F894FFCF52
:06203400D401D4013C01BF
:00000001FF
