:100000000C9438000C94C9030C9435040C94A1048E
:100010000C940D050C9479050C9455000C94500C1F
:100020000C9455000C94FE0B0C94E5050C945106B1
:100030000C94BD060C9429070C9495070C940108A8
:100040000C946D080C94D9080C9445090C94B109D2
:100050000C941D0A0C94890A0C94F50A8F00710007
:10006000740077007A007D0080008300860089009C
:1000700011241FBECFEFD4E0DEBFCDBF11E0A0E062
:10008000B1E0ECECFFE102C005900D92A830B107A1
:10009000D9F724E0A8E0B1E001C01D92AF35B20766
:1000A000E1F70E94E0020C94E40F0C940000E1E6FA
:1000B000F0E080E88083108287EB8093E50087E0A2
:1000C0008093E6008FE08093E70080EC8093E4006B
:1000D00008958A30910500F5FC01E25DFF4F0C9414
:1000E0007B0F80E890E2089581E19EE1089581E12F
:1000F0009BE1089580E59BE0089581E49BE10895EC
:1001000081E49FE1089581E191E0089581E59FE117
:10011000089581E59BE0089580E090E0089581E5F1
:1001200095E10895EF92FF921F93CF93DF9300D054
:10013000CDB7DEB71A8219826630710508F0FEC1AC
:1001400090ED980F9A3028F08AE090E09A838983A6
:1001500004C090E0C0979A8389836115710509F006
:100160004EC00F2EFCEEEF2EF12CF02DF70110817A
:1001700089819A810E946900107F8F70812BF7011D
:1001800080830F2EF1EFEF2EF12CF02DF70110816F
:1001900089819A810E946900807F9927959587952A
:1001A000959587959595879595958795107F812B42
:1001B000F70180830F2EF6EFEF2EF12CF02DF701D3
:1001C000108189819A810E94690088279F70107F21
:1001D000192BF70110830F2EFBEFEF2EF12CF02DD2
:1001E000F701108189819A810E946900107F95959D
:1001F000959595959595912BF70190839FC16130C9
:10020000710509F050C00F2EFCEEEF2EF12CF02DF1
:10021000F701108189819A810E9469001F7082957F
:100220009295907F9827807F9827812BF701808374
:100230000F2EF1EFEF2EF12CF02DF70110818981B7
:100240009A810E9469001F70807F812BF701808353
:100250000F2EF6EFEF2EF12CF02DF7011081898192
:100260009A810E94690088279F709595879595953A
:10027000879595958795959587951F70812BF701A3
:1002800080830F2EFBEFEF2EF12CF02DF701108164
:1002900089819A810E9469008827907F1F70192B9D
:1002A000F70110834BC16230710509F04EC00F2E6B
:1002B000FDEEEF2EF12CF02DF701108189819A814E
:1002C0000E946900107F8F70812BF70180830F2EB1
:1002D000F2EFEF2EF12CF02DF701108189819A8138
:1002E0000E946900807F99279595879595958795B8
:1002F0009595879595958795107F812BF70180833C
:100300000F2EF7EFEF2EF12CF02DF70110818981E0
:100310009A810E94690088279F70107F192BF7012E
:1003200010830F2EFCEFEF2EF12CF02DF701108132
:1003300089819A810E946900107F95959595959580
:100340009595912BF7019083F9C06330710509F001
:1003500050C00F2EFDEEEF2EF12CF02DF701108185
:1003600089819A810E9469001F7082959295907F81
:100370009827807F9827812BF70180830F2EF2EF3B
:10038000EF2EF12CF02DF701108189819A810E94C6
:1003900069001F70807F812BF70180830F2EF7EF9C
:1003A000EF2EF12CF02DF701108189819A810E94A6
:1003B000690088279F709595879595958795959560
:1003C0008795959587951F70812BF70180830F2E58
:1003D000FCEFEF2EF12CF02DF701108189819A812D
:1003E0000E9469008827907F1F70192BF7011083E6
:1003F000A5C06430710509F04EC00F2EFEEEEF2E41
:10040000F12CF02DF701108189819A810E946900F9
:10041000107F8F70812BF70180830F2EF3EFEF2E6B
:10042000F12CF02DF701108189819A810E946900D9
:10043000807F99279595879595958795959587952B
:1004400095958795107F812BF70180830F2EF8EF0C
:10045000EF2EF12CF02DF701108189819A810E94F5
:10046000690088279F70107F192BF70110830F2ECA
:10047000FDEFEF2EF12CF02DF701108189819A818B
:100480000E946900107F9595959595959595912B6E
:10049000F701908353C06530710509F04FC00F2EEE
:1004A000FEEEEF2EF12CF02DF701108189819A815B
:1004B0000E9469001F7082959295907F9827807F97
:1004C0009827812BF70180830F2EF3EFEF2EF12C6D
:1004D000F02DF701108189819A810E9469001F70B7
:1004E000807F812BF70180830F2EF8EFEF2EF12C08
:1004F000F02DF701108189819A810E946900882777
:100500009F709595879595958795959587959595E0
:1005100087951F70812BF70180830F2EFDEFEF2E43
:10052000F12CF02DF701108189819A810E946900D8
:100530008827907F1F70192BF70110830F900F9061
:10054000DF91CF911F91FF90EF9008958F929F922E
:10055000AF92BF92CF92DF92EF92FF92CF93DF9351
:100560004B015C01EA0124E630E040E050E00E94EB
:100570005C0F0F2EFAE0CF2ED12CE12CF12CF02DB8
:10058000A70196010E945C0FBE0180E3820F0E94CA
:1005900092002196C501B401A70196010E945C0F4B
:1005A000862FBE01805D0E949200DF91CF91FF9067
:1005B000EF90DF90CF90BF90AF909F908F90089575
:1005C00040E050E069EE72E088E091E00E94110F97
:1005D00008958BE090E00E942D0F0E945700C1E02B
:1005E000D0E08DE49FE06C01E12CF12CCE010E9463
:1005F000450F21960E94380F40E050E0C701B60138
:100600000E94A602F3CFCF93DF9300D000D0CDB7E6
:10061000DEB78FEF91E02FED32E0FC017097918310
:100620008083409682179307C1F71092D0021092F0
:10063000CF02EAE3F1E087E591E09183808384E7EC
:1006400091E0968F858FA1E9B1E0B3AFA2AF1D9283
:100650001C92FA83E983EBE3F3E0FC83EB8389816B
:100660009A8106960E94A30F8B819C81E981FA8171
:10067000978B868B918F808F83EA9EE0948F838FF8
:10068000158214827D96FA83E983EB81FC81E05A1E
:10069000FF4FFC83EB8389819A818E5A9140F9F652
:1006A000E2EDF1E01182108215821482138212822F
:1006B000E1E6F0E080E880831082109285001092DD
:1006C000840084E08093810081E080936F000F902C
:1006D0000F900F900F90DF91CF910895CF93DF93FC
:1006E00000D0CDB7DEB79A838983809100019091C5
:1006F000010106960E94A30F892B59F489819A81E2
:10070000909301018093000161E070E006960E94E1
:10071000C30F0F900F90DF91CF9108950F931F9308
:10072000CF93DF93E0911401F0911501309761F1BF
:100730008091040190910501009731F1C09102016F
:10074000D0910301AA81BB81109779F0468157812E
:100750006085718516960D911D912D913C9119978B
:10076000401B510B620B730B7AF4FC012081318129
:100770003093050120930401D183C083909303013A
:10078000809302010E946E03DF91CF911F910F9120
:1007900008951F920F920FB60F9211242F933F933B
:1007A0004F935F936F937F938F939F93AF93BF9379
:1007B000EF93FF9320910C0130910D014091840043
:1007C00050918500C901032E000CAA0BBB0BDC0164
:1007D0009927882760E070E0842B952BA62BB72BF8
:1007E00080930E0190930F01A0931001B09311011B
:1007F000B09B1BC04091840050918500C9010196B7
:10080000092E000CAA0BBB0BDC019927882760E09E
:1008100070E0842B952BA62BB72B80930E01909321
:100820000F01A0931001B0931101E091AE01F0917E
:10083000AF01309739F060E070E08091160190913F
:10084000170109950E948E03FF91EF91BF91AF911F
:100850009F918F917F916F915F914F913F912F91D8
:100860000F900FBE0F901F9018951F920F920FB60A
:100870000F9211242F933F934F935F936F937F9326
:100880008F939F93AF93BF93EF93FF9320910C01AE
:1008900030910D014091840050918500C901032ED3
:1008A000000CAA0BBB0BDC019927882760E070E0E5
:1008B000842B952BA62BB72B80930E0190930F01C1
:1008C000A0931001B0931101B09B1BC04091840014
:1008D00050918500C9010196092E000CAA0BBB0B93
:1008E000DC019927882760E070E0842B952BA62BEC
:1008F000B72B80930E0190930F01A0931001B0933A
:100900001101E091B001F091B101309739F061E04F
:1009100070E0809118019091190109950E948E0351
:10092000FF91EF91BF91AF919F918F917F916F91C7
:100930005F914F913F912F910F900FBE0F901F909D
:1009400018951F920F920FB60F9211242F933F9379
:100950004F935F936F937F938F939F93AF93BF93C7
:10096000EF93FF9320910C0130910D014091840091
:1009700050918500C901032E000CAA0BBB0BDC01B2
:100980009927882760E070E0842B952BA62BB72B46
:1009900080930E0190930F01A0931001B093110169
:1009A000B09B1BC04091840050918500C901019605
:1009B000092E000CAA0BBB0BDC019927882760E0ED
:1009C00070E0842B952BA62BB72B80930E01909370
:1009D0000F01A0931001B0931101E091B201F091C9
:1009E000B301309739F062E070E080911A01909184
:1009F0001B0109950E948E03FF91EF91BF91AF916A
:100A00009F918F917F916F915F914F913F912F9126
:100A10000F900FBE0F901F9018951F920F920FB658
:100A20000F9211242F933F934F935F936F937F9374
:100A30008F939F93AF93BF93EF93FF9320910C01FC
:100A400030910D014091840050918500C901032E21
:100A5000000CAA0BBB0BDC019927882760E070E033
:100A6000842B952BA62BB72B80930E0190930F010F
:100A7000A0931001B0931101B09B1BC04091840062
:100A800050918500C9010196092E000CAA0BBB0BE1
:100A9000DC019927882760E070E0842B952BA62B3A
:100AA000B72B80930E0190930F01A0931001B09388
:100AB0001101E091B401F091B501309739F063E094
:100AC00070E080911C0190911D0109950E948E0398
:100AD000FF91EF91BF91AF919F918F917F916F9116
:100AE0005F914F913F912F910F900FBE0F901F90EC
:100AF00018951F920F920FB60F9211242F933F93C8
:100B00004F935F936F937F938F939F93AF93BF9315
:100B1000EF93FF9320910C0130910D0140918400DF
:100B200050918500C901032E000CAA0BBB0BDC0100
:100B30009927882760E070E0842B952BA62BB72B94
:100B400080930E0190930F01A0931001B0931101B7
:100B5000B09B1BC04091840050918500C901019653
:100B6000092E000CAA0BBB0BDC019927882760E03B
:100B700070E0842B952BA62BB72B80930E019093BE
:100B80000F01A0931001B0931101E091B601F09113
:100B9000B701309739F064E070E080911E019091C8
:100BA0001F0109950E948E03FF91EF91BF91AF91B4
:100BB0009F918F917F916F915F914F913F912F9175
:100BC0000F900FBE0F901F9018951F920F920FB6A7
:100BD0000F9211242F933F934F935F936F937F93C3
:100BE0008F939F93AF93BF93EF93FF9320910C014B
:100BF00030910D014091840050918500C901032E70
:100C0000000CAA0BBB0BDC019927882760E070E081
:100C1000842B952BA62BB72B80930E0190930F015D
:100C2000A0931001B0931101B09B1BC040918400B0
:100C300050918500C9010196092E000CAA0BBB0B2F
:100C4000DC019927882760E070E0842B952BA62B88
:100C5000B72B80930E0190930F01A0931001B093D6
:100C60001101E091B801F091B901309739F065E0D8
:100C700070E0809120019091210109950E948E03DE
:100C8000FF91EF91BF91AF919F918F917F916F9164
:100C90005F914F913F912F910F900FBE0F901F903A
:100CA00018951F920F920FB60F9211242F933F9316
:100CB0004F935F936F937F938F939F93AF93BF9364
:100CC000EF93FF9320910C0130910D01409184002E
:100CD00050918500C901032E000CAA0BBB0BDC014F
:100CE0009927882760E070E0842B952BA62BB72BE3
:100CF00080930E0190930F01A0931001B093110106
:100D0000B09B1BC04091840050918500C9010196A1
:100D1000092E000CAA0BBB0BDC019927882760E089
:100D200070E0842B952BA62BB72B80930E0190930C
:100D30000F01A0931001B0931101E091BA01F0915D
:100D4000BB01309739F066E070E08091220190910C
:100D5000230109950E948E03FF91EF91BF91AF91FE
:100D60009F918F917F916F915F914F913F912F91C3
:100D70000F900FBE0F901F9018951F920F920FB6F5
:100D80000F9211242F933F934F935F936F937F9311
:100D90008F939F93AF93BF93EF93FF9320910C0199
:100DA00030910D014091840050918500C901032EBE
:100DB000000CAA0BBB0BDC019927882760E070E0D0
:100DC000842B952BA62BB72B80930E0190930F01AC
:100DD000A0931001B0931101B09B1BC040918400FF
:100DE00050918500C9010196092E000CAA0BBB0B7E
:100DF000DC019927882760E070E0842B952BA62BD7
:100E0000B72B80930E0190930F01A0931001B09324
:100E10001101E091BC01F091BD01309739F067E01C
:100E200070E0809124019091250109950E948E0324
:100E3000FF91EF91BF91AF919F918F917F916F91B2
:100E40005F914F913F912F910F900FBE0F901F9088
:100E500018951F920F920FB60F9211242F933F9364
:100E60004F935F936F937F938F939F93AF93BF93B2
:100E7000EF93FF9320910C0130910D01409184007C
:100E800050918500C901032E000CAA0BBB0BDC019D
:100E90009927882760E070E0842B952BA62BB72B31
:100EA00080930E0190930F01A0931001B093110154
:100EB000B09B1BC04091840050918500C9010196F0
:100EC000092E000CAA0BBB0BDC019927882760E0D8
:100ED00070E0842B952BA62BB72B80930E0190935B
:100EE0000F01A0931001B0931101E091BE01F091A8
:100EF000BF01309739F068E070E080912601909151
:100F0000270109950E948E03FF91EF91BF91AF9148
:100F10009F918F917F916F915F914F913F912F9111
:100F20000F900FBE0F901F9018951F920F920FB643
:100F30000F9211242F933F934F935F936F937F935F
:100F40008F939F93AF93BF93EF93FF9320910C01E7
:100F500030910D014091840050918500C901032E0C
:100F6000000CAA0BBB0BDC019927882760E070E01E
:100F7000842B952BA62BB72B80930E0190930F01FA
:100F8000A0931001B0931101B09B1BC0409184004D
:100F900050918500C9010196092E000CAA0BBB0BCC
:100FA000DC019927882760E070E0842B952BA62B25
:100FB000B72B80930E0190930F01A0931001B09373
:100FC0001101E091C001F091C101309739F069E061
:100FD00070E0809128019091290109950E948E036B
:100FE000FF91EF91BF91AF919F918F917F916F9101
:100FF0005F914F913F912F910F900FBE0F901F90D7
:1010000018951F920F920FB60F9211242F933F93B2
:101010004F935F936F937F938F939F93AF93BF9300
:10102000EF93FF9320910C0130910D0140918400CA
:1010300050918500C901032E000CAA0BBB0BDC01EB
:101040009927882760E070E0842B952BA62BB72B7F
:1010500080930E0190930F01A0931001B0931101A2
:10106000B09B1BC04091840050918500C90101963E
:10107000092E000CAA0BBB0BDC019927882760E026
:1010800070E0842B952BA62BB72B80930E019093A9
:101090000F01A0931001B0931101E091C201F091F2
:1010A000C301309739F06AE070E080912A01909195
:1010B0002B0109950E948E03FF91EF91BF91AF9193
:1010C0009F918F917F916F915F914F913F912F9160
:1010D0000F900FBE0F901F9018951F920F920FB692
:1010E0000F9211242F933F934F935F936F937F93AE
:1010F0008F939F93AF93BF93EF93FF9320910C0136
:1011000030910D014091840050918500C901032E5A
:10111000000CAA0BBB0BDC019927882760E070E06C
:10112000842B952BA62BB72B80930E0190930F0148
:10113000A0931001B0931101B09B1BC0409184009B
:1011400050918500C9010196092E000CAA0BBB0B1A
:10115000DC019927882760E070E0842B952BA62B73
:10116000B72B80930E0190930F01A0931001B093C1
:101170001101E091C401F091C501309739F06BE0A5
:1011800070E080912C0190912D0109950E948E03B1
:10119000FF91EF91BF91AF919F918F917F916F914F
:1011A0005F914F913F912F910F900FBE0F901F9025
:1011B00018951F920F920FB60F9211242F933F9301
:1011C0004F935F936F937F938F939F93AF93BF934F
:1011D000EF93FF9320910C0130910D014091840019
:1011E00050918500C901032E000CAA0BBB0BDC013A
:1011F0009927882760E070E0842B952BA62BB72BCE
:1012000080930E0190930F01A0931001B0931101F0
:10121000B09B1BC04091840050918500C90101968C
:10122000092E000CAA0BBB0BDC019927882760E074
:1012300070E0842B952BA62BB72B80930E019093F7
:101240000F01A0931001B0931101E091C601F0913C
:10125000C701309739F06CE070E080912E019091D9
:101260002F0109950E948E03FF91EF91BF91AF91DD
:101270009F918F917F916F915F914F913F912F91AE
:101280000F900FBE0F901F9018951F920F920FB6E0
:101290000F9211242F933F934F935F936F937F93FC
:1012A0008F939F93AF93BF93EF93FF9320910C0184
:1012B00030910D014091840050918500C901032EA9
:1012C000000CAA0BBB0BDC019927882760E070E0BB
:1012D000842B952BA62BB72B80930E0190930F0197
:1012E000A0931001B0931101B09B1BC040918400EA
:1012F00050918500C9010196092E000CAA0BBB0B69
:10130000DC019927882760E070E0842B952BA62BC1
:10131000B72B80930E0190930F01A0931001B0930F
:101320001101E091C801F091C901309739F06DE0E9
:1013300070E0809130019091310109950E948E03F7
:10134000FF91EF91BF91AF919F918F917F916F919D
:101350005F914F913F912F910F900FBE0F901F9073
:1013600018951F920F920FB60F9211242F933F934F
:101370004F935F936F937F938F939F93AF93BF939D
:10138000EF93FF9320910C0130910D014091840067
:1013900050918500C901032E000CAA0BBB0BDC0188
:1013A0009927882760E070E0842B952BA62BB72B1C
:1013B00080930E0190930F01A0931001B09311013F
:1013C000B09B1BC04091840050918500C9010196DB
:1013D000092E000CAA0BBB0BDC019927882760E0C3
:1013E00070E0842B952BA62BB72B80930E01909346
:1013F0000F01A0931001B0931101E091CA01F09187
:10140000CB01309739F06EE070E08091320190911D
:10141000330109950E948E03FF91EF91BF91AF9127
:101420009F918F917F916F915F914F913F912F91FC
:101430000F900FBE0F901F9018951F920F920FB62E
:101440000F9211242F933F934F935F936F937F934A
:101450008F939F93AF93BF93EF93FF9320910C01D2
:1014600030910D014091840050918500C901032EF7
:10147000000CAA0BBB0BDC019927882760E070E009
:10148000842B952BA62BB72B80930E0190930F01E5
:10149000A0931001B0931101B09B1BC04091840038
:1014A00050918500C9010196092E000CAA0BBB0BB7
:1014B000DC019927882760E070E0842B952BA62B10
:1014C000B72B80930E0190930F01A0931001B0935E
:1014D0001101E091CC01F091CD01309739F06FE02E
:1014E00070E0809134019091350109950E948E033E
:1014F000FF91EF91BF91AF919F918F917F916F91EC
:101500005F914F913F912F910F900FBE0F901F90C1
:1015100018951F920F920FB60F9211242F933F939D
:101520004F935F936F937F938F939F93AF93BF93EB
:10153000EF93FF9320910C0130910D0140918400B5
:1015400050918500C901032E000CAA0BBB0BDC01D6
:101550009927882760E070E0842B952BA62BB72B6A
:1015600080930E0190930F01A0931001B09311018D
:10157000B09B1BC04091840050918500C901019629
:10158000092E000CAA0BBB0BDC019927882760E011
:1015900070E0842B952BA62BB72B80930E01909394
:1015A0000F01A0931001B0931101E091CE01F091D1
:1015B000CF01309739F060E170E080913601909171
:1015C000370109950E948E03FF91EF91BF91AF9172
:1015D0009F918F917F916F915F914F913F912F914B
:1015E0000F900FBE0F901F9018951F920F920FB67D
:1015F0000F9211242F933F934F935F936F937F9399
:101600008F939F93AF93BF93EF93FF9320910C0120
:1016100030910D014091840050918500C901032E45
:10162000000CAA0BBB0BDC019927882760E070E057
:10163000842B952BA62BB72B80930E0190930F0133
:10164000A0931001B0931101B09B1BC04091840086
:1016500050918500C9010196092E000CAA0BBB0B05
:10166000DC019927882760E070E0842B952BA62B5E
:10167000B72B80930E0190930F01A0931001B093AC
:101680001101E091D001F091D101309739F061E181
:1016900070E0809138019091390109950E948E0384
:1016A000FF91EF91BF91AF919F918F917F916F913A
:1016B0005F914F913F912F910F900FBE0F901F9010
:1016C0001895EF92FF920F931F93CF93DF937B01B7
:1016D000EB01A881B981109761F1FC0106811781A6
:1016E0002085318516964D915D916D917C9119976C
:1016F000041715072607370714F41BC0DF01ED9107
:10170000FC911197309749F046815781608571852A
:1017100004171507260737078CF7EC01F983E883D0
:10172000109721F4F7019183808307C08D939C93D8
:1017300004C0EC01B983A883F5CFDF91CF911F914D
:101740000F91FF90EF900895EF92FF920F931F93E8
:10175000CF93DF937B01EB01A881B981109761F1F1
:10176000FC01028113812481358112964D915D9196
:101770006D917C911597041715072607370714F408
:101780001BC0DF01ED91FC911197309749F0428128
:1017900053816481758104171507260737078CF775
:1017A000EC01F983E883109721F4F701918380839A
:1017B00007C08D939C9304C0EC01B983A883F5CF37
:1017C000DF91CF911F910F91FF90EF900895DC0171
:1017D000ED91FC911197309759F48FEF8093EC00C5
:1017E0008093ED008093EE0081E083BF8895FDCF6C
:1017F000208131812D933C93CF0108951F920F9248
:101800000FB60F9211242F933F934F935F936F93D3
:101810007F938F939F93EF93FF9380910C0190910F
:101820000D01019690930D0180930C01E09112013E
:10183000F0911301309701F14281538164817581E8
:1018400086179707C9F4CA0120918400309185005A
:10185000421B530B4130510529F480918400909133
:10186000850001969093890080938800EFE6F0E070
:1018700080818260808305C0EFE6F0E080818D7F0B
:101880008083FF91EF919F918F917F916F915F91F5
:101890004F913F912F910F900FBE0F901F90189571
:1018A0001F920F920FB60F921124CF92DF92EF92F8
:1018B000FF922F933F934F935F936F937F938F93F9
:1018C0009F93AF93BF93EF93FF93C0900C01D09081
:1018D0000D012091840030918500B0990FC00D2C2E
:1018E000000CEE08FF08D601992788276901E12C32
:1018F000F12CC82AD92AEA2AFB2A15C02091840093
:10190000309185008FEFC81AD80A0D2C000CEE0814
:10191000FF08D601992788276901E12CF12CC82AF4
:10192000D92AEA2AFB2AE0911201F091130130979B
:1019300009F442C082819381A481B5818C199D09EB
:10194000AE09BF09181619061A061B06ECF182E14A
:1019500091E00E94E70B64E171E00E94610BE0916D
:101960001201F0911301309739F182819381A481A2
:10197000B5818C199D09AE09BF09181619061A06FA
:101980001B062CF721C09C014091840050918500DA
:10199000841B950B019731F42091840030918500D0
:1019A0002F5F3F4F3093890020938800EFE6F0E0EF
:1019B00080818260808305C0EFE6F0E080818D7FCA
:1019C00080830E948E030CC082819381A481B581A3
:1019D00020910C0130910D012A173B0769F7D3CFF5
:1019E000FF91EF91BF91AF919F918F917F916F91F7
:1019F0005F914F913F912F91FF90EF90DF90CF90AB
:101A00000F900FBE0F901F9018953F924F925F92CC
:101A10006F927F928F929F92AF92BF92CF92DF92FE
:101A2000EF92FF920F931F93CF93DF932B013C0113
:101A300049015A018FB78078382EF89486E091E0FA
:101A40000E94E70BEC011B870A87FD86EC86DF8688
:101A5000CE86332061F0E0910001F0910101028017
:101A6000F381E02D82819381A481B58108C08091AA
:101A70000E0190910F01A0911001B0911101480E3B
:101A8000591E6A1E7B1E4A825B826C827D821814FC
:101A900019041A041B0444F00F2E88248A94982CED
:101AA000A82CFFE7BF2EF02D840C951CA61CB71C9C
:101AB0008E829F82A886B98680910C0190910D013B
:101AC0004091840050918500B0990EC0092E000C01
:101AD000AA0BBB0BDC019927882760E070E0842B00
:101AE000952BA62BB72B13C0209184003091850035
:101AF0000196092E000CAA0BBB0BDC019927882745
:101B0000A90160E070E0842B952BA62BB72B481A17
:101B1000590A6A0A7B0A1414150416041704ACF552
:101B200062E171E0CE010E94A40BE0911201F091FC
:101B30001301309721F182819381A481B581209195
:101B40000C0130910D012A173B07C9F49C0140910B
:101B5000840050918500841B950B019731F42091EE
:101B60008400309185002F5F3F4F30938900209390
:101B70008800EFE6F0E080818260808341C0EFE67C
:101B8000F0E080818D7F80833BC064E171E0CE0115
:101B90000E94610B3320B9F18091040190910501FD
:101BA000009781F1E0910201F0910301209114016D
:101BB0003091150102811381D90116964D915D91E5
:101BC0006D917C911997D80116960D911D912D91CB
:101BD0003C911997401B510B620B730B9AF4DC017B
:101BE0002D913C9111973093050120930401ED93C1
:101BF000FC9390930301809302010E946E0302C044
:101C0000332009F07894CE01DF91CF911F910F918D
:101C1000FF90EF90DF90CF90BF90AF909F908F900C
:101C20007F906F905F904F903F900895CF92DF929A
:101C3000EF92FF920F931F93CF93DF93EC017B0101
:101C40006A011FB71078F894A881B981109761F1E3
:101C50001496ED91FC911597309741F0A081B181D8
:101C60001496ED91FC9115973097C1F720910001E2
:101C7000309101012A173B0721F0112309F43DC0DF
:101C800007C0112309F43CC078948FEF9FEF52C036
:101C90008A819B810097D1F1FC011582148236C0A4
:101CA000789480E090E046C080910001909101011D
:101CB00099838883112329F08A819B81019709F0F8
:101CC0007894B601CE01F7010995F82E092F8FB748
:101CD000F894198218828A819B818230910538F0AC
:101CE0001B821A82FC01158214820E946E0311234A
:101CF00051F078948F2D902F1DC08FEF9FEF1AC059
:101D00008FEF9FEF17C08F2D902F14C03B832A8336
:101D1000F901D583C483CD010E946E03E0910001D7
:101D2000F091010182819381892B09F4B9CFF98364
:101D3000E883C2CFDF91CF911F910F91FF90EF9079
:101D4000DF90CF900895009100011091010184E18E
:101D500091E00E94E70BEC01D80113969C938E93BF
:101D6000129778944E855F856C857D858A859B85E5
:101D70000E94160E8FB7F89480910601909107018A
:101D800099838883D0930701C0930601E0910201F3
:101D9000F091030100811181E8012A813B81A0912A
:101DA0001401B09115011097C1F02115310559F2B8
:101DB00016968D919D910D90BC91A02DE9014E81BB
:101DC0005F8168857985841B950BA60BB70B181668
:101DD00019061A061B060CF0B6CF109303010093E8
:101DE0000201809104019091050191838083F09319
:101DF0000501E0930401A0910201B0910301149642
:101E0000ED91FC911597309741F0A081B181149626
:101E1000ED91FC9115973097C1F7CD010E946E03AB
:101E200092CF8C017B016A018FB7F8940E94030363
:101E30007894E114F10441F020E030E0A90160E081
:101E400070E0CB010E94050D8FB7F8940E948E03BD
:101E5000789481E083BF8895FDCF9093C5008093EF
:101E6000C40088ED8093C10086E08093C20008958D
:101E70008091C000882344F4A6ECB0E0E0ECF0E0F0
:101E80008C9180818823E4F30895E0ECF0E0908168
:101E900095FFFDCF8093C6000895ECEEF0E09081B1
:101EA00082E089278083E0ECF0E080818823ECF7F2
:101EB0008091C60090E00895052E97FB1EF40094D3
:101EC0000E94730F57FD07D00E94810F07FC03D0BB
:101ED0004EF40C94730F50954095309521953F4FDB
:101EE0004F4F5F4F089590958095709561957F4F06
:101EF0008F4F9F4F0895EE0FFF1F0590F491E02D37
:101F00000994A1E21A2EAA1BBB1BFD010DC0AA1F3A
:101F1000BB1FEE1FFF1FA217B307E407F50720F052
:101F2000A21BB30BE40BF50B661F771F881F991FCD
:101F30001A9469F760957095809590959B01AC0116
:101F4000BD01CF010895DC012D923D924D925D922D
:101F50006D927D928D929D92AD92BD92CD92DD92C9
:101F6000ED92FD920D931D93CD93DD93FF91EF9133
:101F70008DB78D938EB78D938FB78D93ED93FD9322
:101F8000882799270994DC01CB0181309105811DB7
:101F90002D903D904D905D906D907D908D909D9099
:101FA000AD90BD90CD90DD90ED90FD900D911D9187
:101FB000CD91DD91ED91FD910D90F894FEBF0FBE96
:0C1FC000EDBFED91FD910994F894FFCF66
:081FCC00D201D2013A01EF013C
:00000001FF
